:1000000010C1000095C30000BFC300000C940D1A7E
:100010000C94411A37C100000C94751A33C10000CA
:1000200031C100002FC100002DC100002BC1000014
:1000300029C1000027C1000025C100000C94BA1797
:1000400021C100001FC100001DC100001BC1000034
:1000500019C1000017C1000015C100000C947F1EDB
:1000600011C100000C94C71D0C94FD1D0BC10000B4
:1000700009C1000007C1000005C1000003C1000064
:1000800001C10000FFC00000FDC00000FBC0000077
:10009000F9C00000F7C00000F5C00000F3C0000088
:1000A000F1C00000EFC00000EDC00000EBC0000098
:1000B000E9C00000E7C00000E5C00000E3C00000A8
:1000C000E1C00000DFC00000DDC00000DBC00000B8
:1000D000D9C00000D7C00000D5C00000D3C00000C8
:1000E000D1C000003334616464313638353734357B
:1000F0003130653665313766356432336563633078
:1001000037376566007374645F6D7367732F496E6C
:100110007436340064613539303966626533373896
:10012000616561663835653534376538333063630A
:1001300031626237007374645F6D7367732F496E49
:100140007433320039663065393862646136353966
:100150003831393836646466353361666137613405
:100160003065343900726F7373657269616C5F6DED
:100170007367732F52657175657374506172616D29
:1001800000313161626437333163323539333332B0
:100190003631636436313833626431326436323931
:1001A0003500726F7373657269616C5F6D7367732D
:1001B0002F4C6F67003061643531663838666334C0
:1001C0003438393266386331303638343037373680
:1001D000343630303500726F7373657269616C5FED
:1001E0006D7367732F546F706963496E666F006338
:1001F0006437313636633734633535326333313102
:10020000666263633266653561376263323839002E
:100210007374645F6D7367732F54696D6500D514D3
:10022000261E11241FBECFEFD1E2DEBFCDBF00E0FE
:100230000CBF13E0A0E0B2E0E0E9F3E400E00BBFA4
:1002400002C007900D92A633B107D9F724E0A6E3C8
:10025000B3E001C01D92A83AB207E1F711E0C1E195
:10026000D1E000E006C021970109802FFE010E9425
:10027000B41FCF30D10780E00807A9F70E945611BC
:100280000C94C621BDCEFC01A389B4899A01AB01AF
:100290000E94591F62837383848395830895FC01B0
:1002A00042835383648375830895FC016281738163
:1002B000848195810895FC016683A781B0856623BA
:1002C00069F04285613001F55C9181E090E09C012C
:1002D00001C0220F4A95EAF7252B22C04C9181E0FC
:1002E00090E09C01018402C0220F331F0A94E2F7C0
:1002F000242B2C93A781B0852C91028402C0880FF7
:10030000991F0A94E2F716C03C9181E090E0BC018D
:1003100002C0660F771F4A95E2F7262F2095232308
:100320002C93A781B0852C91018402C0880F991F5E
:100330000A94E2F7809582238C930895F894DC0167
:10034000ED91FC919B0177FF04C022273327261BE8
:10035000370B318320837894FC012589222339F0DF
:100360001616170614F461E001C060E0A4CF0895EA
:1003700021E0FC01258B08952F923F924F925F92CE
:100380006F927F928F92AF92CF92DF92EF920F9304
:100390001F93CF93DF931F921F92CDB7DEB7DA8200
:1003A000C9824F88588C698C7A8C2B8C3C8CDB01F1
:1003B0001C91A1E0B0E0FD0102C0EE0FFF1F4A95C5
:1003C000E2F7AF01412BFB014083F9016081AD01F0
:1003D00001C0440F0A95EAF7642BAD0101C0440F38
:1003E000EA94EAF7462B4083F6013081AD010A2CEE
:1003F00001C0440F0A94EAF7242F2095AD01082C80
:1004000001C0440F0A94EAF7242B23232083FC0124
:100410001682D086C782A18682862FE33FE1ED89CE
:10042000FE8931832083F20120810D8C02C0AA0F46
:10043000BB1F0A94E2F7A22BA083208122602083B5
:10044000D3012C9120612C932C9121602C93FC01E1
:1004500031822082D10111961C921E920F900F9032
:10046000DF91CF911F910F91EF90DF90CF90AF90E0
:100470008F907F906F905F904F903F902F90089556
:100480004F925F926F927F928F92AF92BF92CF9274
:10049000DF92EF920F931F93CF93DF93CDB7DEB729
:1004A000DC01FA01908144244394512C320102C0B2
:1004B000660C771C0A95E2F7862D80958923808348
:1004C000F9019081A20101C0440FEA94EAF7842F58
:1004D0008095892380838D899E891C969C938E9319
:1004E0001B971E96DC92CE921D975096BC92AE92B0
:1004F0001F9751968C9251978A8952968C93529756
:10050000F6012081C20101C0880F8A94EAF7822B8C
:1005100080831F962D913C915097F9014081C20133
:1005200052960C9002C0880F991F0A94E2F7842B10
:100530008083A9E6B0E02C91C2010C8802C0880F2C
:10054000991F0A94E2F7282BC2010B8802C0880F7A
:10055000991F0A94E2F7822B8C938DB3F20101C0AC
:10056000EE0F6A95EAF7E82BEDBBDF91CF911F9173
:100570000F91EF90DF90CF90BF90AF908F907F90D2
:100580006F905F904F9008958F92AF92BF92CF92ED
:10059000DF92EF920F93CF93DF93EC011D8A5C8B78
:1005A0004B8B662309F445C0613009F081C085E0BA
:1005B0008F931F928AE98F931F9281E98F931F92E5
:1005C00080E98F931F9286E98F9383E0882EAA2477
:1005D000A39498E2C92ED12C23E0E22E01E027E279
:1005E00030E044E06DE270E0CE01C6DE86E393E0E9
:1005F0009F938F9383E08F9382E08F938F938824D0
:10060000839432E2A32EB12C4BE2C42ED12C52E0C3
:10061000E52E21E230E04AE250E061E0CE0130DF39
:100620008DB79EB70E960FB6F8949EBF0FBE8DBFC6
:100630003FC087E08F931F9288E98F931F9281E9D3
:100640008F931F9280E98F931F9286E98F9367E0C3
:10065000862E75E0A72EE8E2CE2ED12CF7E0EF2E05
:1006600005E027E230E043E06DE270E0CE0184DE99
:100670008AE393E09F938F9381E08F931F921F9261
:10068000812CA2E2AA2EB12CBBE2CB2ED12CE12CE4
:1006900000E021E230E04AE250E060E0CE01F0DE2E
:1006A0008DB79EB70E960FB6F8949EBF0FBE8DBF46
:1006B000DF91CF910F91EF90DF90CF90BF90AF90EF
:1006C0008F900895F894DC011B96ED91FC911C9796
:1006D000608171818281938178940895FA01DC01AF
:1006E0002C9130E0062E02C0359527950A94E2F74A
:1006F00020FD08C080819181A281B3810196A11D56
:10070000B11D11C0DC018C9190E002C095958795D8
:100710006A95E2F780FF0BC080819181A281B3814D
:100720000197A109B10980839183A283B3830895BE
:100730001F920F920FB60F9211240BB60F922F93A8
:100740003F934F935F936F937F938F939F93AF9359
:10075000BF93EF93FF934AE353E060E080E290E0C1
:10076000BDDFFF91EF91BF91AF919F918F917F91ED
:100770006F915F914F913F912F910F900BBE0F9012
:100780000FBE0F901F9018951F920F920FB60F92E9
:1007900011240BB60F922F933F934F935F936F9358
:1007A0007F938F939F93AF93BF93EF93FF9346E312
:1007B00053E062E080E290E091DFFF91EF91BF9122
:1007C000AF919F918F917F916F915F914F913F91E9
:1007D0002F910F900BBE0F900FBE0F901F9018958A
:1007E000FC01608352834183BC01655F7F4F20E041
:1007F00030E04CE003960C9404170F931F938A018A
:100800009B01AC014D5F5F4FC901B8011F910F9172
:100810000C942D17CF92DF92EF92FF92FC016A01A8
:100820007B01208130E0A8EEB3E00E944A1F2481C2
:1008300030E021503109032E000C440B550B0E946F
:100840002E1FC701B6010E94EA1E9B01AC01ACE35A
:10085000B0E00E94591F28EE33E040E050E00E94D3
:100860002E1FCA01B901FF90EF90DF90CF9008953D
:10087000CF92DF92EF92FF920F931F93CF93DF936C
:10088000EC018C010D5F1F4F60E0C8010E945A17F8
:100890006B017C016C816150C8010E945A17A7014D
:1008A0009601261B370B480B590B57FD02C081E000
:1008B00001C08FEFC82E880FDD08EE08FF08C701C2
:1008C000B6010E94EA1EAB01BC01CE01A3DFA70165
:1008D00096010E94EA1EDF91CF911F910F91FF9028
:1008E000EF90DF90CF9008958F929F92AF92BF923A
:1008F000CF92DF92EF92FF920F931F93CF93DF93EC
:10090000EC016A017B01288130E0A8EEB3E00E948F
:100910004A1F2C8130E021503109032E000C440B7A
:10092000550B0E942E1F49015A01A8EEB3E0A70102
:1009300096010E94591F29813A8140E050E00E94AF
:100940002E1FCA01B901A50194010E94EA1E9B0154
:10095000AC01ACE3B0E00E94591F20EA36E841E068
:1009600050E00E942E1F89019A01EAE0F0E0C801E0
:10097000BF010E94F91E853028F4A801481B590BBD
:10098000CA0105C0E81BF109CF01800F911F6AE081
:1009900070E00E94F91ECB01DF91CF911F910F9162
:1009A000FF90EF90DF90CF90BF90AF909F908F908F
:1009B0000895CF92DF92EF92FF920F931F93CF9300
:1009C000DF93EC018C010D5F1F4F60E0C8010E94B6
:1009D0005A176B017C016C816150C8010E945A1743
:1009E000A7019601261B370B480B590B57FD02C078
:1009F00011E001C01FEFA12F012E000CBB0B0E94C4
:100A0000631FAB01BC01CE016FDF9C011203C0016B
:100A1000139F900D1124DF91CF911F910F91FF90A3
:100A2000EF90DF90CF900895CF93DF931F921F92A6
:100A3000CDB7DEB71A82198289819A810F900F9003
:100A4000DF91CF910895CF93DF931F921F92CDB77F
:100A5000DEB79A8389832FB7F89449815A81FB01C5
:100A600080819181842B952B918380832FBF0F9060
:100A70000F90DF91CF9108954F925F926F927F9286
:100A8000AF92BF92CF92DF92EF92FF920F931F939C
:100A9000CF93DF93CDB7DEB728970FB6F894DEBFBC
:100AA0000FBECDBF29013A01ED82FE820F83188768
:100AB0000E94A91A69837A838B839C83A60195017E
:100AC0006A8D7B8D8C8D9D8D0E94A91A9B01AC0136
:100AD00069817A818B819C810E94351C69837A832C
:100AE0008B839C83A3019201C801B7010E94A91ABC
:100AF0009B01AC0169817A818B819C810E940E1BD4
:100B0000A60195010E94AA1A0E94761B072E000CCE
:100B1000880B990B0E94A91B28960FB6F894DEBF8C
:100B20000FBECDBFDF91CF911F910F91FF90EF903E
:100B3000DF90CF90BF90AF907F906F905F904F907D
:100B40000895DC01FB0112968C9112978083139615
:100B50008C911397818314968C91149782831596A8
:100B60008C911597838316968C911697848317968C
:100B70008C911797858318968C9118978683199670
:100B80008C91878388E090E00895FC01DB014C9113
:100B900050E060E070E04283538364837583119674
:100BA0008C911197582B42835383648375831296DB
:100BB0008C911297682B42835383648375831396B9
:100BC0008C911397782B4283538364837583149697
:100BD0004C91149750E060E070E046835783608743
:100BE000718715968C911597582B4683578360878C
:100BF000718716968C911697682B4683578360876A
:100C0000718717968C91782B4683578360877187FD
:100C100088E090E0089580E192E008958FEE91E001
:100C2000089586ED91E0089585EB91E0089582EABC
:100C300091E0089581E891E0089585E691E00895B6
:100C400084E491E00895DC01FB0112964C91129727
:100C500013962C91139714969C91149715968C913A
:100C6000408321839283838384E090E00895FB0195
:100C70004081518162817381FC014283538364838B
:100C8000758384E090E0089585E391E0089584E120
:100C900091E00895BF92CF92DF92EF92FF920F936F
:100CA0001F93CF93DF93EC01FB01AA81BB80CC8023
:100CB000DD80EE80FF801885B985A0832A2F3B2D2B
:100CC000A601B701812F9B2F08E00E94841F21837A
:100CD0002A2F3B2DA601B701812F9B2F00E10E94F7
:100CE000841F22832A2F3B2DA601B701812F9B2F22
:100CF00008E10E94841F23832A2F3B2DA601B70100
:100D0000812F9B2F00E20E94841F24832A2F3B2DDA
:100D1000A601B701812F9B2F08E20E94841F258323
:100D20002A2F3B2DA601B701812F9B2F00E30E94A4
:100D3000841F26832A2F3B2DA601B701812F9B2FCD
:100D400008E30E94841F278388E090E0DF91CF9121
:100D50001F910F91FF90EF90DF90CF90BF9008957B
:100D6000FC01DB018C91828311968C911197838316
:100D700012968C911297848313968C911397858386
:100D800014968C911497868315968C91159787836A
:100D900016968C911697808717968C91818788E09C
:100DA00090E0089585E091E0089584EE90E0089544
:100DB0000F931F93CF93DF938C01EC012796CE0105
:100DC00056DFD8011D96ED91FC911E97CE01DF9163
:100DD000CF911F910F911994FC01878590890895F7
:100DE00085E391E0089584E191E008958E579B4F4B
:100DF000FC01808108952EEE32E0FC0131832083D6
:100E0000838194810C94541ECF93DF93EC01F3DF24
:100E1000CE01DF91CF910C94541EFC01428153818D
:100E2000648175818FE693E03ACAFC014281538167
:100E30006481758170956095509541955F4F6F4FB6
:100E40007F4F89E593E02BCAAB01FC01A781B085F8
:100E500065817681ED91FC9111970190F081E02DF3
:100E6000CD011994CF93DF93DC0115968D919C9160
:100E70001697FB0115962D913C9116972539310552
:100E8000ECF4449113966D917C911497EB01C20F91
:100E9000D31F488315962D913C9116973196139642
:100EA000CD91DC911497C20FD31F48812F5F3F4F24
:100EB00016963C932E9315974111DCCF15962D91E4
:100EC0003C9116972539310524F022E017962C9392
:100ED000179713962D913C911497820F931FDF91D2
:100EE000CF9108954111BECFCB010895BBCFCF93D1
:100EF000DF93EC011A828EEE92E0998388831E8242
:100F00001D8286E990E00E94531E9C838B83FC0126
:100F10001082EB56FF4F1082DF91CF910895CF9250
:100F2000DF92EF92FF9220E030E06A017B01022E17
:100F300004C0F694E794D794C7940A94D2F7FC01BE
:100F4000C192CF01285F3F4F2032310571F7FF90EA
:100F5000EF90DF90CF9008954F925F926F927F92C3
:100F6000AF92BF92CF92DF92EF92FF920F931F93B7
:100F7000CF93DF93EC018B018A81FB0180838B810E
:100F800081838C8182838D818383DB0140E050E00B
:100F9000BA01E4E0F0E01496CA80DB80EC80FD80CA
:100FA000CF0104964C155D056E057F05C8F42A85B2
:100FB0003B85E20FF31F3497D080F180328123818B
:100FC000DC921196FC92119712963C93129713960D
:100FD0002C931397FC014F5F5F4F6F4F7F4FDBCF19
:100FE0005F01A00EB11E2C85F50120832D85218384
:100FF0002E8522832F852383D50140E050E0BA015E
:10100000CC84DD84EE84FF849C012C5F3F4F4C1523
:101010005D056E057F05F8F4CD018A199B09EC8802
:10102000FD888E0D9F1DFC01D080E180F2808381C0
:101030001496DC9214971596EC9215971696FC92DE
:10104000169717968C931797C9014F5F5F4F6F4F95
:101050007F4F1496D5CFF801E80FF91F8E89808352
:101060008F898183888D8283898D83837901A12CE7
:10107000B12C412C512C32018E899F89A88DB98DBC
:10108000481659066A067B0678F5EC8DFD8DEA0D4B
:10109000FB1DA081B181FD0101900020E9F731978E
:1010A0006F01CA1ADB0AA60160E070E0C8018E0D6C
:1010B0009F1D35DFF4E0EF0EF11CEC8DFD8DEA0D88
:1010C000FB1D60817181A601C8018E0D9F1D0E94CC
:1010D000BD21EC0CFD1C8FEF481A580A680A780AEB
:1010E000E2E0AE0EB11CC8CFC701DF91CF911F91D6
:1010F0000F91FF90EF90DF90CF90BF90AF907F90D7
:101100006F905F904F900895EF92FF920F931F930F
:10111000CF93DF938C017B01DC0112962C91129707
:10112000FB012193CF011396ED91FC911497EF01F0
:1011300009900020E9F72197CE1BDF0BAE0160E09C
:1011400070E0EDDED80113966D917C911497AE019D
:10115000C70105960E94BD21CE010596DF91CF9172
:101160001F910F91FF90EF900895CF92DF92EF9231
:10117000FF920F931F93CF93DF937C018B01DC01D0
:1011800012968C911297FB01808313968C91139782
:1011900081831496ED91FC911597EF010990002041
:1011A000E9F72197CE1BDF0BAE0160E070E0C801CC
:1011B0000296B5DED70114966D917C911597AE011C
:1011C000C80106960E94BD21CE010696F701A681B0
:1011D000B781FD0101900020E9F731976F01CA1A2C
:1011E000DB0AA60160E070E0800F911F98DE2A966E
:1011F000D70116966D917C911797A601C8018C0FA7
:101200009D1F0E94BD21CC0DDD1DD7011896ED91CB
:10121000FC911997DF010D900020E9F711976D01FE
:10122000CE1ADF0AA60160E070E0C8018C0F9D1F96
:1012300076DE2496F70160857185A601C8018C0FC2
:101240009D1F0E94BD21C6018C0F9D1FD7011A96BC
:101250006C911A971B964C911B971C963C911C976E
:101260001D962C91F801E80FF91F608341833283AA
:1012700023830496DF91CF911F910F91FF90EF9000
:10128000DF90CF900895CF92DF92EF92FF92FC0112
:101290001082118212821382DB0120E030E04D9136
:1012A00050E0022E02C0440F551F0A94E2F7052EAB
:1012B000000C660B770BC080D180E280F3804C2954
:1012C0005D296E297F294083518362837383285F60
:1012D0003F4F2032310519F7FF90EF90DF90CF900C
:1012E00008954F925F926F927F928F929F92AF92EA
:1012F000BF92EF92FF920F931F93CF93DF9300D093
:101300001F92CDB7DEB77C018B01FB018191BF013C
:10131000F7018283CE010196B6DF89819A81AB8184
:10132000BC814C015D01F5E08F0E911CA11CB11C2C
:10133000A8014C5F5F4FFA0125E030E02901612CE4
:10134000712C481459046A047B0428F46181619368
:101350002F5F3F4FF3CFF801E80FF91F1482F70119
:101360005483438305960F900F900F900F90DF9159
:10137000CF911F910F91FF90EF90BF90AF909F90F2
:101380008F907F906F905F904F9008952F923F9233
:101390004F925F926F927F928F929F92AF92BF9285
:1013A000CF92DF92EF92FF920F931F93CF93DF9331
:1013B000CDB7DEB760970FB6F894DEBF0FBECDBFD6
:1013C0008C016B01DB018D909D90AD90BC90FC0178
:1013D00082819381A481B58188159905AA05BB05F1
:1013E00070F4B401660F771F660F771F82859385AF
:1013F0000E94DD20D8011B969C938E931A97F801CA
:1014000082829382A482B5829601812C912C540110
:1014100044E050E0B8016A5F7F4F2C5F3F4FF80116
:1014200082819381A481B581FA0134961F018816C7
:101430009906AA06BB0650F5D9011196FC901197A2
:1014400012968C9190E0A0E0B0E0DC01992788270B
:101450009F29F901F0808F29F380BF29F801868345
:101460009783A087B187DA01A101149782859385BC
:10147000A80FB91F84E0FB0101900D928A95E1F756
:10148000FFEF8F1A9F0AAF0ABF0AC7CF4601840E2B
:10149000951ED4018C9111969C91119712964C90A7
:1014A0001297512C612C712C320155244424592A55
:1014B000482A13968C91782A5F01F80184859585D6
:1014C000A685B78584159505A605B70570F4B20104
:1014D000660F771F660F771F848995890E94DD202C
:1014E000D80155969C938E935497F801448655865F
:1014F00066867786C401412C512C32019801205F09
:101500003F4FD8011C964D915D916D917C911F9735
:10151000F5013496441655066606770698F5DC0103
:101520001596FC90159716964C91169750E060E032
:1015300070E0BA01552744275F291496FC90149750
:101540004F291796FC907F29D80150964D935D93B3
:101550006D937C9353975F01AC01481959095496D8
:101560000D90BC91A02DA40FB51F44E0F90101908E
:101570000D924A95E1F7BFEF4B1A5B0A6B0A7B0AA3
:101580000496BFCFD601AA0DBB1D8C9111969C91DC
:10159000119712968C901297912CA12CB12C54017A
:1015A00099248824992A882A13968C91B82A7F0135
:1015B000F80186899789A08DB18D88159905AA05AE
:1015C000BB0560F4B401660F771F848D958D0E9472
:1015D000DD20D8015D969C938E935C97F801868AF6
:1015E000978AA08EB18E212C312C812C912C540104
:1015F0009801265E3F4F3A872987F80186899789A7
:10160000A08DB18D88169906AA06BB0608F05EC0AB
:10161000B6016E0D7F1DCE01019635DE97012C5F60
:101620003F4F388B2F8749815A816B817C81C9015B
:10163000330FAA0BBB0B2C013D01440E551E661E39
:10164000771E4B865C866D867E8623E0E20EF11C5B
:10165000F601EE0DFF1D2F853889C901A0E0B0E02D
:101660004B845C846D847E8484159505A605B7053E
:1016700028F4A181A1932F5F3F4FEFCF6F8478882B
:10168000460D571DF601E40FF51F31971082C30177
:1016900001978C0D9D1DD8015B969C938E935A9754
:1016A0007A015C96ED91FC915D97E20DF31DA985A1
:1016B000BA858D919C9191838083BFEF8B1A9B0A91
:1016C000AB0ABB0AE2E02E0E311C97CFC701609631
:1016D0000FB6F894DEBF0FBECDBFDF91CF911F9143
:1016E0000F91FF90EF90DF90CF90BF90AF909F90C1
:1016F0008F907F906F905F904F903F902F900895C4
:101700004F925F926F927F928F929F92AF92BF9211
:10171000CF92DF92EF92FF920F931F93CF93DF93BD
:10172000CDB7DEB72C970FB6F894DEBF0FBECDBF96
:101730007C018B01DB018C9190E0F7019383828324
:1017400011962C91922B938382836E5F7F4FCE01F3
:10175000099699DD89849A84AB84BC84240135017F
:10176000F6E04F0E511C611C711C98012B5F3F4F1E
:10177000F90186E090E0AC0160E070E044155505A9
:101780006605770520F4418141930196F4CFF80175
:10179000E80DF91D1582D70115963C932E931497E9
:1017A000B4016A5F7F4F600F711FCE0105966BDD3C
:1017B000BAE08B0E911C4D805E806F807884A4010E
:1017C000092C000C660B770B440D551D661D771D0B
:1017D000D801A80DB91DCD01801B910B5C01C12C56
:1017E000D12CA416B506C606D70628F48D91FD01A6
:1017F00032978083F0CF5401A40CB51CB8016A0D58
:101800007B1DFB0131971082C4010197800F911F4E
:10181000F70197838683CE01019635DD95012C5F14
:101820003F4F89819A81AB81BC812901032E000C35
:1018300066087708480E591E6A1E7B1EF50133960E
:10184000E00FF11FA9014A01A12CB12C84149504C9
:10185000A604B70428F4618161934F5F5F4FF3CF13
:10186000820F931FF801E80FF91FDF0111971C92F7
:1018700021503109020F131FD70119961C930E93A3
:1018800018972181428150E060E070E0BA0155274D
:101890004427522B2081422B2381722BF701428750
:1018A00053876487758704962C960FB6F894DEBF2D
:1018B0000FBECDBFDF91CF911F910F91FF90EF90A1
:1018C000DF90CF90BF90AF909F908F907F906F9060
:1018D0005F904F900895FC01EC5EFB4F20E030E0FC
:1018E00041915191452B91F4F901E65FFD4FEE0FC7
:1018F000FF1FE80FF91F7183608323583F4FFB01DF
:10190000368325839087878381E008952F5F3F4F3B
:101910002931310529F780E008950F931F93CF9364
:10192000DF93CDB7DEB72A970FB6F894DEBF0FBEB0
:10193000CDBF8C018EEB92E09A8389831B821C823F
:101940001D821E821F82188619861A86D801ED9183
:10195000FC910190F081E02DAE014F5F5F4F6AE096
:1019600070E0C80119950E94C91EF801608771874F
:10197000828793872A960FB6F894DEBF0FBECDBF3D
:10198000DF91CF911F910F9108958F929F92AF9207
:10199000BF92CF92DF92EF92FF920F931F93CF935C
:1019A000DF93CDB7DEB72A970FB6F894DEBF0FBE30
:1019B000CDBF8C015B018EEB92E09A8389831B8201
:1019C0001C821D821E821F82188619861A860E941A
:1019D000C91EF801C084D184E284F3849B01AC0168
:1019E0002C193D094E095F0969017A01B501CE0143
:1019F0000196CBD888EE882E83E0982EA12CB12CAE
:101A0000C701B601A50194010E940C1FCB80DC80A8
:101A1000ED80FE80C20ED31EE41EF51ECB82DC825A
:101A2000ED82FE829B01AC0160E472E48FE090E005
:101A30000E94EA1ECF80D884E984FA84DC01CB01BD
:101A40008C0D9D1DAE1DBF1D8F839887A987BA87FA
:101A50000E94C91ECB80DC80ED80FE8031E0C31A7D
:101A6000D108E108F108A50194010E940C1FC21AD7
:101A7000D30AE40AF50AF801C486D586E686F78615
:101A8000CF80D884E984FA84F6E3DF1AF5E6EF0A1A
:101A9000F4ECFF0A9B01AC0160E472E48FE090E09B
:101AA0000E94EA1EC61AD70AE80AF90AF801C08A93
:101AB000D18AE28AF38AB801605F7F4FC8010C9631
:101AC0000E947B170E94C91EF801E957FB4F6083F3
:101AD0007183828393832A960FB6F894DEBF0FBE7C
:101AE000CDBFDF91CF911F910F91FF90EF90DF90CD
:101AF000CF90BF90AF909F908F900895CF93DF933A
:101B000000D01F921F92CDB7DEB726ED32E03A83A8
:101B100029836B835D834C83DC01ED91FC91019003
:101B2000F081E02DAE014F5F5F4F67E070E01995E7
:101B30000F900F900F900F900F90DF91CF9108951D
:101B4000AF92BF92CF92DF92EF92FF920F931F93CB
:101B5000CF93DF93643671053CF0FC01EE57FB4FE9
:101B60002081222309F462C0DA016B01EC01BC017F
:101B7000655E7D4FED91FC910190F081E02DCA01F1
:101B800019958C017E012CEEE21A2DEFF20A2FEF4F
:101B9000D7012C93FE01EB5EFD4F2EEF2083319693
:101BA0008083319690833196980F909590833196EB
:101BB000C0821696DC9245E050E020E030E0C8019B
:101BC00007964817590730F46191260F311D4F5F72
:101BD0005F4FF7CF085F1F4F8C0F9D1FFC01EC5E1E
:101BE000FD4F209520830130B2E01B07A8F4680167
:101BF0005701C5018E199F0980179107CCF48A817E
:101C00009B81F50161915F01DC01ED91FC910190F7
:101C1000F081E02D1995EDCF46E052E063E0CE0172
:101C20006DDFCC24CA94DD24DA9402C0C12CD12CFF
:101C3000C601DF91CF911F910F91FF90EF90DF9040
:101C4000CF90BF90AF9008954F925F926F927F9226
:101C5000AF92BF92CF92DF92EF92FF920F931F93BA
:101C6000CF93DF93CDB7DEB766970FB6F894DEBF9C
:101C70000FBECDBF8C018AEC92E09A8389831C82CF
:101C80001B828EE392E09E838D8398878F839A8751
:101C900089871B861C861D861E8668018CEEC81AE5
:101CA0008BEFD80A7801AAEBEA1AABEFFA0A412CBB
:101CB00092E0592E612C712CF60180819181892B43
:101CC00009F45AC0CE010F9612D9D601ED91FC91BC
:101CD000858196819C838B83608171814281CE0155
:101CE0000F9600D99E838D83D601ED91FC9183815F
:101CF0009481DC01ED91FC910480F581E02D199532
:101D0000BC01CE010F96AED898878F83D601ED9196
:101D1000FC9183819481DC01ED91FC910680F78137
:101D2000E02D1995BC01CE010F969CD89A87898722
:101D30004B865C866D867E86D601ED91FC91618531
:101D40007285D801ED91FC910190F081E02DAE01FA
:101D50004F5F5F4FC80119958989813019F44FE3AE
:101D600052E004C0823029F443E552E063E0C80148
:101D7000C5DECE010F963FD8B2E0CB0ED11CCE14FB
:101D8000DF0409F099CF6801E8E8CE1AEBEFDE0A2C
:101D9000412C82E0582E612C712CD7018D919C91A1
:101DA000892B09F45DC0CE010F96A1D8D701ED9122
:101DB000FC91828193819C838B83648175814681B0
:101DC000CE010F968FD89E838D83F70180819181FC
:101DD000DC01ED91FC910480F581E02D1995BC01A9
:101DE000CE010F963FD898878F83F701808191812C
:101DF000DC01ED91FC910680F781E02D1995BC0185
:101E0000CE010F962FD89A8789874B865C866D8680
:101E10007E86D801ED91FC91A080B180F701808190
:101E20009181DC01ED91FC910280F381E02D199507
:101E3000AE014F5F5F4FBC01C801F501199589895B
:101E4000813019F44FE352E004C0823029F443E5B5
:101E500052E063E0C80152DECE010F960E94FB06FD
:101E6000F2E0EF0EF11CCE14DF0409F096CFF8017A
:101E7000EE57FB4F81E0808366960FB6F894DEBF85
:101E80000FBECDBFDF91CF911F910F91FF90EF90CB
:101E9000DF90CF90BF90AF907F906F905F904F900A
:101EA00008952F923F924F925F926F927F928F92FE
:101EB0009F92AF92BF92CF92DF92EF92FF920F93D9
:101EC0001F93CF93DF93CDB7DEB760970FB6F8942B
:101ED000DEBF0FBECDBF988B8F870E94C91E4B01FE
:101EE0005C012F85388929573B4F3E832D83F901AB
:101EF00080819181A281B381A5019401281B390BB6
:101F00004A0B5B0BDA01C901893F9A42A105B10571
:101F100028F0EF85F889EE57FB4F10820F8518895E
:101F200008581B4FD8018D919C91892B81F0EF852A
:101F3000F889E557FB4F80819181A281B381881593
:101F40009905AA05BB0518F4F801118210826F8467
:101F50007888F0E86F1AFBEF7F0A2F8538892458BC
:101F60003B4F3A832983CF84D88834E1C30ED11CF8
:101F70004F8558894E575B4F58874F838F85988977
:101F800080579B4F9A878987AF85B889A157BB4FE8
:101F9000BC87AB87EF84F888B6E8EB1ABBEFFB0A87
:101FA000EF85F889E258FB4FFC83EB832F85388956
:101FB00025573B4F3E872D871401250134E1230E21
:101FC000311C411C511CAF85B88912968D919C9192
:101FD0001397DC01ED91FC910284F385E02D1995B6
:101FE0009C0197FD22C1F30180819181820F931F93
:101FF00091838083D8014D915C9147305105D1F494
:10200000EB81FC8180819181AC014F5F5F4F5183F7
:102010004083EF85F889E80FF91F248BD7018D9154
:102020009C91119701978D939C93892B61F688E081
:1020300090E030C04115510529F52F3F310561F47D
:1020400081E090E0D8018D939C93ED85FE85208200
:10205000318242825382B7CF0E94C91EDC01CB017C
:1020600088199909AA09BB090697A105B10508F4C1
:10207000AACF2F8538892E573B4FD9011C928EEF5E
:102080009FEFFBC041305105A9F42E3F310531F4DB
:1020900082E090E0F8019183808395CFD8011D9272
:1020A0001C92EF81F885808181118DCF8F85988971
:1020B00034DC89CF4230510581F4D7012D933C9314
:1020C000EB81FC811182108283E090E0D8018D9336
:1020D0009C93F3013183208376CF4330510569F41B
:1020E000322F2227D7018D919C911197280F391FEC
:1020F0002D933C9384E090E0CDCF4430510589F49A
:1021000060E071E00E94F91E8F3F910531F485E097
:1021100090E0D8018D939C9356CFF80111821082E4
:1021200052CF4530510569F4A981BA812D933C9372
:1021300046E050E0F80151834083D3012D933C9356
:1021400042CF4630510599F4322F2227E981FA8196
:1021500080819181280F391F31832083E7E0F0E0EF
:10216000D801ED93FC93D7018D919C915ECF4830BF
:10217000510509F028CFF8011182108260E071E06A
:102180000E94F91E8F3F910509F01DCFA981BA81E8
:102190008D919C910097B9F48F859889BEDB8F85CE
:1021A000988952DDEF85F889ED57FB4F8082918247
:1021B000A282B382ED81FE8180829182A282B3826B
:1021C0008FEF9FEF5AC08A30910529F4B6018F85B1
:1021D0009889DBDBF8CE8630910549F4B601898514
:1021E0009A85D4D881E0AB85BC858C93ECCE8B30BE
:1021F000910521F4EF81F8851082E5CEFC01E154D0
:10220000FE4FEE0FFF1F2F853889E20FF31F8081ED
:102210009181009709F4D7CEDC01ED91FC910190FA
:10222000F081E02DB6011995CECEEF85F889EE57F5
:10223000FB4F80818823F9F00F8518890D571B4FBC
:10224000F80180819181A281B381A5019401281BAD
:10225000390B4A0B5B0BDA01C901853C9940A1059A
:10226000B10548F08F85988958DBD8018D929D92F1
:10227000AD92BC92139780E090E060960FB6F89410
:10228000DEBF0FBECDBFDF91CF911F910F91FF90A9
:10229000EF90DF90CF90BF90AF909F908F907F9006
:1022A0006F905F904F903F902F900895CF93DF9362
:1022B000CDB7DEB7C951D6400FB6F894DEBF0FBE1A
:1022C000CDBF0E94D51EE12CF12C00E010E020E0F3
:1022D00030E040E061E084E190E001D7CC5ED94F8E
:1022E0008883C451D6403CD720E030E040E060E035
:1022F00080E797E1F4D620E030E040E060E088E756
:1023000096EEEDD620E030E040E061E088EC90E031
:10231000E6D6CB5ED94F8883C551D64021D782E11E
:1023200093E09A8389838EEF93E09C838B8380E094
:1023300091EEA0E0B0E08D839E83AF83B887CD5748
:10234000DB4F1882C358D44082EE92E0CF56DB4F69
:1023500099838883C159D440CD56DB4F18821982A6
:102360001A821B82C359D440C556DB4F198218828A
:10237000CB59D440C356DB4F188219821A821B8274
:10238000CD59D440CB55DB4F19821882C55AD44061
:10239000C955DB4F188219821A821B82C75AD44052
:1023A000C355DB4F19821882CD5AD440CE018B5EC3
:1023B0009B4F5E0129EBA21A2BEFB20AFC0111928E
:1023C0001192AE16BF06D9F74E0137E8831A3BEFDC
:1023D000930AF501119211928E169F06D9F7DE012C
:1023E0005596FE01EB5EFD4F1D92EA17FB07E1F7E4
:1023F0001192E817F907E1F71E0144EF241A49EF9B
:10240000340A8AEF92E0F101918380831282138271
:102410001482158227E632E0CF50DA4F39832883C1
:10242000C15FD540CD50DA4F1882C35FD540CC5044
:10243000DA4F39822882C45FD540C650DA4F1982FC
:102440001882CA5FD540709726E033E0318320833D
:1024500012821382148215821682178210861186C8
:1024600026E732E0CA51DA4F39832883C65ED54069
:10247000C851DA4F1882C85ED540C751DA4FF98388
:10248000E883C95ED540C151DA4F19821882CF5E08
:10249000D5403A96918380831282138214821582EA
:1024A00025E832E0C552DA4F39832883CB5DD54029
:1024B000C352DA4F1882CD5DD540C252DA4FF9834C
:1024C000E883CE5DD540CC51DA4F19821882C45EC4
:1024D000D5406E01F6E3CF1AFAEFDF0A4CE153E084
:1024E000F601518340839087878311861286138675
:1024F00014862DE037E03687258721E030E0308BE9
:10250000278765E972E07583648316827E01F7E4AC
:10251000EF1AFAEFFF0AF701518340839087878310
:10252000118612861386148685E197E09687858743
:10253000308B278787EA92E09583848316820E94F6
:102540001405CE5ED94F99838883C251D6404D8100
:102550005E816F81788526E08B819C810E94641D5D
:10256000F40111821082C558DB4F19821882CB57B3
:10257000D440C158DB4F19821882CF57D440C3587A
:10258000DB4F19821882CD57D440BE016F507A4F6D
:10259000CE010196A0D9BE0165527A4FCE010196B7
:1025A0009AD9BE016A517A4FCE01019694D9F501AC
:1025B00080E090E021913191232B99F4FC01ED5DB5
:1025C000FD4FEE0FFF1F21E030E02C0F3D1FE20F0B
:1025D000F31FD182C0828C599F4FF601938382836F
:1025E00004C001968931910529F780E090E0F5015A
:1025F000219131915F01232B99F4FC01ED5DFD4F99
:10260000EE0FFF1F21E030E02C0F3D1FE20FF31F04
:10261000F182E0828C599F4FF7019383828304C03B
:1026200001968931910519F760E070E08FE693E03B
:102630000E949E018FE693E00E94B80160E070E086
:1026400089E593E00E949E0189E593E00E94B8012C
:1026500047E354E062E3CE0182589A4F0E94F003B0
:102660001F921F92FFE1FF932FE32F93BB24BA9495
:10267000BF92BF9280EE482E4F9291EC592E5F92FE
:102680001F9223E0622E6F923AE4732E7F9248EFFE
:10269000842E8F92BF925CEF952E9F9235EB3F93E5
:1026A00048E04F9364E1A62EC12CD12C76010DECAD
:1026B0001CEC2CE43EE343E25BED69EF7DE3CE01ED
:1026C00087509B4F8CD147E354E062E3CE018D5B92
:1026D0009A4F0E94F0031F921F925FE15F936FE396
:1026E0006F93BF92BF924F925F921F926F927F92B1
:1026F0008F92BF929F9285EB8F9398E09F930DEC02
:102700001CEC2CE43EE343E25BED69EF7DE3CE019C
:1027100081559B4F64D10FB6F894DEBF0FBECDBF7D
:1027200040E050E0BA018FE693E00E94430140E0B0
:1027300050E0BA0189E593E00E944301CC5ED94F95
:102740008881C451D64028D5882309F494C0CC5E32
:10275000D94F8881C451D64028D58FE693E00E9496
:1027600062034B015C0189E593E00E9462032B0147
:102770003C01B501A401CE0182589A4F0E94FD038D
:10278000B301A201CE018D5B9A4F0E94FD038FE63B
:1027900093E00E9455016B017C01CE0182589A4F53
:1027A0000E943804A7019601261B370B480B590BD2
:1027B000CA5ED94F288339834A835B83C651D6408A
:1027C00089E593E00E9455016B017C01CE018D5B90
:1027D0009A4F0E943804C61AD70AE80AF90ACA5E54
:1027E000D94F488159816A817B81C651D640CE013B
:1027F00087509B4F63D1BC018FE693E00E949E01FE
:10280000B701A601CE0181559B4F58D1BC0189E586
:1028100093E00E949E01F10182829382A482B5829C
:102820007094609450944094411C511C611C711C24
:10283000C85FD94F488259826A827B82C850D6408D
:10284000B101CE018F509A4F0E942407BE016A5FEA
:10285000794FCE0185529A4F0E942407CE018258AB
:102860009A4F0E94D904CE018D5B9A4F0E94D904E1
:10287000CE01019616DBCB5ED94F8881C551D6407B
:102880008BD4882309F45ACFCB5ED94F8881C551A8
:10289000D6408BD480E593E016D587E493E013D53A
:1028A0008EE393E010D5F5E3FA95F1F7000080E5AB
:1028B00093E01CD587E493E019D58EE393E016D519
:1028C00080E593E028D5E92ED82EF92EFF0CFF08DD
:1028D00087E493E020D5B82EC92E8EE393E01BD574
:1028E000782E892E2B2D9C2D990F990B3C2D492F3D
:1028F000592F692F792F892F00E10E94691F922E8D
:10290000A32EB42EC52EB62FA72FFC01272D982D50
:10291000990F990B382D492F592F692F792F892F0E
:1029200000E20E94691F922AA32A4B295C296B2B83
:102930007A2B8E2B9F2BD928EA284F295F296F29C4
:102940007F29E82FEF29F92AC250DA4FD882CE5FCB
:10295000D540C150DA4FE882CF5FD540C050DA4F42
:102960004883C050D640CF5FD94F5883C150D6401E
:10297000CE5FD94F6883C250D640CD5FD94F7883A0
:10298000C350D640CC5FD94FE883C450D640CB5F0C
:10299000D94FF882C550D640BE0164507A4FCE015F
:1029A0008A519A4F0E942407C9CE47E354E060E061
:1029B0008FE693E00E94C40247E354E061E089E5BA
:1029C00093E00E94C40262E080E593E001D463E0FA
:1029D00087E493E0FDD365E08EE393E0F9C38F9243
:1029E0009F92AF92CF92DF92EF92FF920F931F933D
:1029F000CF93DF93CDB7DEB74C01FC011086118673
:102A0000128613861486158616861786108A118AF2
:102A1000128A138A1082118212821382448B558B80
:102A2000668B778BC08ED18EE28EF38E048F158FDE
:102A3000268F378FA0AA8F859889A989BA8984A300
:102A400095A3A6A3B7A38B899C89AD89BE8980A3D2
:102A500091A3A2A3B3A38F89988DA98DBA8D84A7C2
:102A600095A7A6A7B7A78B8D9C8DAD8DBE8D80A792
:102A700091A7A2A7B3A711AAB4016E5B7F4F20E074
:102A800030E042E0C401CA96BFD182E090E0A0E00D
:102A9000B0E0F40182AB93ABA4ABB5AB148215826A
:102AA00016821782DF91CF911F910F91FF90EF90C7
:102AB000DF90CF90AF909F908F9008953F924F926C
:102AC0005F926F927F928F929F92AF92BF92CF92BE
:102AD000DF92EF92FF920F931F93CF93DF93CDB7C7
:102AE000DEB72E970FB6F894DEBF0FBECDBF9E8720
:102AF0008D872A013B01DC01D1968C91D197811100
:102B00000DC014968D919D910D90BC91A02D6A01E0
:102B10007B01C81AD90AEA0AFB0A03C0C12CD12CCE
:102B20007601C301B20115D64B015C019B01AC01DA
:102B3000ED85FE85648975898689978996D6AD85E8
:102B4000BE8518966D937D938D939C931B978D01F5
:102B5000065C1F4FC701B601FCD5ED85FE85208DB3
:102B6000318D428D538D81D66B017C01AD85BE8543
:102B7000D0966C9170E080E090E0EBD59B01AC01C9
:102B8000C701B6014BD5B2D5A80167D1312CC12CF4
:102B9000D12C7601232D30E040E050E0ED85FE851C
:102BA00062A973A984A995A9261737074807590769
:102BB000DCF4621B730B840B950B9B01AC010E9430
:102BC000EA1E69837A838B839C83632DC80172D14B
:102BD00029813A814B815C810E94EA1EC60ED71E74
:102BE000E81EF91E3394D6CFED85FE85A1A926A94E
:102BF00037A940AD51AD29833A834B835C83A11142
:102C00002AC0C701B6010E942E1FCA01B901A1D571
:102C1000AD85BE851C966D937D938D939C931F9778
:102C20005C962D913D914D915C915F97C501B401EA
:102C30001CD69B01AC01ED85FE8560897189828976
:102C4000938988D4AD85BE8550966D937D938D9381
:102C50009C9353972AC09B01AC010E94EA1E2981D4
:102C60003A814B815C81261B370B480B590BC701FE
:102C7000B6010E942E1FCA01B9016BD5ED85FE85F4
:102C80006487758786879787A5019401648D758D04
:102C9000868D978DEAD5AD85BE8550966D937D93D3
:102CA0008D939C935397D1961C92ED85FE85248538
:102CB00035854685578560857185828593854AD49B
:102CC000AD85BE8550962D913D914D915C91539768
:102CD00041D40CD5ED85FE85608371838283938317
:102CE00024A135A146A157A129833A834B835C8354
:102CF000621773078407950724F420833183428386
:102D00005383AD85BE8590962D913D914D915C91FB
:102D100093972D833E834F8358878D919D910D907E
:102D2000BC91A02D281739074A075B0734F4ED85BD
:102D3000FE852083318342835383AD85BE859C9677
:102D40006D917D918D919C919F9703D55B016C0155
:102D50006D817E818F819885FCD46D837E838F8386
:102D6000988769817A818B819C81F3D469837A8386
:102D70008B839C83ED85FE85608171818281938147
:102D8000E8D469877A878B879C87AD85BE859896BE
:102D90006D917D918D919C919B97DBD49F938F93A7
:102DA0007F936F93ED80FE800F81188529813A8192
:102DB0004B815C8169857A858B859C850E943C0569
:102DC000ED85FE8544825582668277828FD40F908E
:102DD0000F900F900F90CB012E960FB6F894DEBF98
:102DE0000FBECDBFDF91CF911F910F91FF90EF905C
:102DF000DF90CF90BF90AF909F908F907F906F901B
:102E00005F904F903F900895FC01408311821282A1
:102E100041504383758364833783268308950F93DA
:102E20001F93FC012281822F90E0A481B58134E0C0
:102E3000239FA00DB11D11240D911D912D913C9149
:102E40000196608170E0D5D7828381818150818332
:102E5000C901B8011F910F910895CF92DF92EF92AF
:102E6000FF92CF93DF936B017C01EA019981888106
:102E7000981302C0CA01D3DF8B8190E0019668816C
:102E800070E0B7D78B839927880F991F880F991FF8
:102E9000EC81FD81E80FF91FC082D182E282F382CA
:102EA00089818F5F8983DF91CF91FF90EF90DF90D1
:102EB000CF900895FC0181816817C8F4208130E02B
:102EC0008381A901480F511DCA01861B9109B901CF
:102ED00090D7880F991F880F991F0480F581E02DE6
:102EE000E80FF91F6081718182819381089560E00C
:102EF00070E0CB010895CF92DF92EF92FF920F9393
:102F00001F93CF93DF938C01EB01688179818A81D4
:102F10009B8120E03AEC4AE95BE37ED7F801C08070
:102F2000D180E280F380C20ED31EE41EF51EC08263
:102F3000D182E282F382688379838A839B83DF91E3
:102F4000CF911F910F91FF90EF90DF90CF90089558
:102F500085E08093B200E1EBF0E08081887F8083A0
:102F6000808184608083E0E7F0E0808181608083FD
:102F7000789408951F920F920FB60F9211240BB6FA
:102F80000F92CF92DF92EF92FF920F931F932F93A6
:102F90003F934F935F936F937F938F939F93AF93E1
:102FA000BF93CF93DF93EF93FF9385E08093B200BD
:102FB0008091850390918603A0918703B091880347
:102FC0000196A11DB11D8093850390938603A09364
:102FD0008703B0938803CFE9D3E009E813E0E12C3D
:102FE000F12C8DE0D82ECC24C39488818F3F09F436
:102FF0005BC08981882309F450C0F80180819181E8
:10300000A281B3810196A11DB11D80839183A2830A
:10301000B3834B815C8160E070E084179507A6075D
:10302000B707D9F58D8189831082118212821382AC
:103030008E81813029F1D8F0823099F0833069F5A2
:10304000DE9CF001DF9CF00D1124E156FC4F8185E0
:1030500092856B857C850E942305EF81F885199503
:103060001CC0F894EF81F8851995789416C0DE9C01
:10307000F001DF9CF00D1124E156FC4FC2820DC01F
:10308000DE9CF001DF9CF00D1124E156FC4F8185A0
:1030900092856B857C850E942305FFEFEF1AFF0A5E
:1030A0002D960C5F1F4FA1CFFF91EF91DF91CF9134
:1030B000BF91AF919F918F917F916F915F914F9150
:1030C0003F912F911F910F91FF90EF90DF90CF9044
:1030D0000F900BBE0F900FBE0F901F901895EF92A0
:1030E000FF920F931F93CF93DF931F921F92CDB741
:1030F000DEB7DC011A83098380919D0381110DC025
:10310000EFE9F3E08FEF808311823D9693E0E03E9C
:10311000F907C9F781E080939D0380E09DE0989FC7
:10312000F0011124E156FC4F50815F3F11F08F5F99
:10313000F6CF808312823087278329813A813287B4
:103140002187F486E3864683B483A38365830F9047
:103150000F90DF91CF911F910F91FF90EF90089505
:10316000CF93C82F80919E0381110CC0F1DE109285
:10317000850310928603109287031092880381E0E2
:1031800080939E038DE0C89FF0011124E156FC4F0F
:1031900081E08183CF9108952DE0829FC0011124A9
:1031A000FC01E156FC4F828108952DE0829FC00111
:1031B0001124FC01E156FC4F12820895F8946091AD
:1031C0008503709186038091870390918803089509
:1031D000FC01633059F1653009F44CC0623009F0EC
:1031E00071C080910A01826080930A0152988BE03D
:1031F00091E09783868381E080878CEF93E09183D1
:1032000080838FEF9FEF9093FD038093FC0384EF07
:1032100093E09383828388EE93E095838483809107
:103220006900806180936900EA9A47C080910A0131
:10323000886080930A0153988BE091E0978386839E
:1032400060878AEF93E0918380838FEF9FEF909365
:10325000FB038093FA0380EF93E09383828384EEF1
:1032600093E09583848380916900806480936900F2
:10327000EB9A23C080910A01806280930A016D98C5
:103280008BE091E097838683608788EF93E091835A
:1032900080838FEF9FEF9093F9038093F8038CEE78
:1032A00093E09383828380EE93E09583848380917F
:1032B0006A00846080936A00ED9A80918100846046
:1032C000809381000895DC011696ED91FC9117978B
:1032D000408121E030E0C90118960C9002C0880FAF
:1032E000991F0A94E2F7842B80830895DC011696D7
:1032F000ED91FC911797408121E030E0B9011896DB
:103300000C9002C0660F771F0A94E2F7CB018095FC
:10331000842380830895F894DC01ED91FC918081F1
:103320009181789408954F925F926F927F928F92DD
:103330009F92AF92BF92CF92DF92EF92FF920F9344
:103340001F93CF93DF936C01762E7A01E901809071
:10335000840090908500A12CB12C30DFF6012081F3
:1033600030E002C0359527957A94E2F720FF0AC035
:1033700088829982AA82BB82F801608371838283EA
:1033800093833AC0488059806A807B808414950476
:10339000A604B70430F4FAE98F0EF9E19F1EA11CD0
:1033A000B11C488059806A807B80F80100811181BE
:1033B00022813381AB01BC01401B510B620B730BAB
:1033C000493051056105710530F08FEF9FEFF7012E
:1033D0009183808311C0A501940124193509460900
:1033E0005709A0EAB0E065D524E432E040E050E0BF
:1033F00013D5F70131832083DF91CF911F910F9176
:10340000FF90EF90DF90CF90BF90AF909F908F9004
:103410007F906F905F904F9008951F920F920FB61C
:103420000F9211240BB60F920F931F932F933F937C
:103430004F935F936F937F938F939F93AF93BF93BC
:10344000EF93FF9308EE13E024EF33E04CEF53E0EB
:1034500062E089E290E067DFFF91EF91BF91AF9169
:103460009F918F917F916F915F914F913F912F919C
:103470001F910F910F900BBE0F900FBE0F901F90DA
:1034800018951F920F920FB60F9211240BB60F9240
:103490000F931F932F933F934F935F936F937F935C
:1034A0008F939F93AF93BF93EF93FF9304EE13E03B
:1034B00020EF33E04AEF53E063E089E290E033DF4E
:1034C000FF91EF91BF91AF919F918F917F916F91FC
:1034D0005F914F913F912F911F910F910F900BBED4
:1034E0000F900FBE0F901F9018951F920F920FB65E
:1034F0000F9211240BB60F920F931F932F933F93AC
:103500004F935F936F937F938F939F93AF93BF93EB
:10351000EF93FF9300EE13E02CEE33E048EF53E01F
:1035200065E08CE290E0FFDEFF91EF91BF91AF91FB
:103530009F918F917F916F915F914F913F912F91CB
:103540001F910F910F900BBE0F900FBE0F901F9009
:1035500018955058BB27AA270ED04DC13ED130F048
:1035600043D120F031F49F3F11F41EF433C10EF427
:10357000E095E7FB29C1E92F4FD180F3BA17620725
:1035800073078407950718F071F49EF567C10EF470
:10359000E0950B2EBA2FA02D0B01B90190010C0163
:1035A000CA01A0011124FF27591B99F0593F50F47B
:1035B000503E68F11A16F040A22F232F342F4427D3
:1035C000585FF3CF469537952795A795F0405395CB
:1035D000C9F77EF41F16BA0B620B730B840BBAF09B
:1035E0009150A1F0FF0FBB1F661F771F881FC2F706
:1035F0000EC0BA0F621F731F841F48F4879577951A
:103600006795B795F7959E3F08F0B3CF9395880FD0
:1036100008F09927EE0F9795879508950CD0EBC089
:10362000E3D040F0DAD030F021F45F3F19F0CCC0A5
:10363000511115C1CFC0F0D098F39923C9F3552388
:10364000B1F3951B550BBB27AA2762177307840795
:1036500038F09F5F5F4F220F331F441FAA1FA9F34B
:1036600033D00E2E3AF0E0E830D091505040E6953D
:10367000001CCAF729D0FE2F27D0660F771F881F9E
:10368000BB1F261737074807AB07B0E809F0BB0B8D
:10369000802DBF01FF2793585F4F2AF09E3F5105B1
:1036A00068F092C0DCC05F3FECF3983EDCF3869597
:1036B00077956795B795F7959F5FC9F7880F911D27
:1036C0009695879597F90895E1E0660F771F881F13
:1036D000BB1F621773078407BA0720F0621B730BC6
:1036E000840BBA0BEE1F88F7E095089504D0689418
:1036F000B111B5C0089598D088F09F5790F0B92FB8
:103700009927B751A0F0D1F0660F771F881F991F36
:103710001AF0BA95C9F712C0B13081F09FD0B1E06C
:1037200008959CC0672F782F8827B85F39F0B93F7C
:10373000CCF3869577956795B395D9F73EF4909538
:103740008095709561957F4F8F4F9F4F0895E894B6
:1037500009C097FB3EF490958095709561957F4FD9
:103760008F4F9F4F9923A9F0F92F96E9BB27939587
:10377000F695879577956795B795F111F8CFFAF497
:10378000BB0F11F460FF1BC06F5F7F4F8F4F9F4FC8
:1037900016C0882311F096E911C0772321F09EE826
:1037A000872F762F05C0662371F096E8862F70E08C
:1037B00060E02AF09A95660F771F881FDAF7880F66
:1037C0009695879597F9089597F99F6780E870E037
:1037D00060E008959FEF80EC089500240A94161687
:1037E000170618060906089500240A9412161306EF
:1037F000140605060895092E0394000C11F488237D
:1038000052F0BB0F40F4BF2B11F460FF04C06F5F98
:103810007F4F8F4F9F4F089557FD9058440F551F6E
:1038200059F05F3F71F04795880F97FB991F61F042
:103830009F3F79F087950895121613061406551FB9
:10384000F2CF4695F1DF08C0161617061806991F25
:10385000F1CF86957105610508940895E894BB271A
:1038600066277727CB0197F908950BD0C4CFB5DF32
:1038700028F0BADF18F0952309F0A6CFABCF1124BA
:10388000EECFCADFA0F3959FD1F3950F50E0551FFF
:10389000629FF001729FBB27F00DB11D639FAA27A5
:1038A000F00DB11DAA1F649F6627B00DA11D661FF4
:1038B000829F2227B00DA11D621F739FB00DA11D15
:1038C000621F839FA00D611D221F749F3327A00DCF
:1038D000611D231F849F600D211D822F762F6A2F6B
:1038E00011249F5750408AF0E1F088234AF0EE0FF0
:1038F000FF1FBB1F661F771F881F91505040A9F7FD
:103900009E3F510570F060CFAACF5F3FECF3983E29
:10391000DCF3869577956795B795F795E7959F5F63
:10392000C1F7FE2B880F911D9695879597F90895FD
:10393000FC01918D228D892F90E0805C9F4F821B2E
:1039400091098F7399270895FC01918D828D9817A5
:1039500031F0828DE80FF11D858D90E008958FEF95
:103960009FEF0895FC01918D828D981761F0828DF3
:10397000DF01A80FB11D5D968C91928D9F5F9F73A3
:10398000928F90E008958FEF9FEF0895FC01538D83
:10399000448D252F30E0842F90E0821B930B541729
:1039A00010F0CF96089501970895FC01848DDF01F2
:1039B000A80FB11DA35ABF4F2C91848D90E00196A2
:1039C0008F739927848FA689B7892C93A089B18991
:1039D0008C91837080648C93938D848D981306C032
:1039E0000288F389E02D80818F7D80830895EF9296
:1039F000FF920F931F93CF93DF93EC0181E0888FA9
:103A00009B8D8C8D981305C0E889F989808185FD8F
:103A100025C0F62E0B8D10E00F5F1F4F0F7311277F
:103A2000E02E8C8DE8120BC00FB607FCFACFE889A8
:103A3000F989808185FFF5CFCE01B7DFF2CF8B8D7D
:103A4000FE01E80FF11DE35AFF4FF0829FB7F89493
:103A50000B8FEA89FB89808180620AC09FB7F89446
:103A6000EE89FF896083E889F989808183708064A9
:103A700080839FBF81E090E0DF91CF911F910F91F4
:103A8000FF90EF900895CF93DF93EC01888D88230A
:103A9000C1F0EA89FB89808185FD05C0A889B989C3
:103AA0008C9186FD0EC00FB607FCF5CF808185FF97
:103AB000F2CFA889B9898C9185FFEDCFCE0175DF52
:103AC000E8CFDF91CF910895CF92DF92EF92FF92EE
:103AD0001F93CF93DF93EC016A017B01122FE889DA
:103AE000F98982E080834115514E61057105A9F085
:103AF00060E079E08DE390E0A70196018DD1DA01D5
:103B0000C9010197A109B109B695A7959795879520
:103B10009C01211580E13807A0F0E889F98910821D
:103B200060E874E88EE190E0A701960175D1DA01B2
:103B3000C9010197A109B109B695A79597958795F0
:103B40009C01EC85FD853083EE85FF852083188EF2
:103B5000EC89FD891083EA89FB89808180618083FB
:103B6000EA89FB89808188608083EA89FB8980817A
:103B700080688083EA89FB8980818F7D8083DF91E3
:103B8000CF911F91FF90EF90DF90CF9008951F92FB
:103B90000F920FB60F9211240BB60F922F938F93A3
:103BA0009F93EF93FF93E0910E04F0910F048081B7
:103BB000E0911404F091150482FD12C0908180916F
:103BC00017048F5F8F7320911804821751F0E091D2
:103BD0001704F0E0E250FC4F958F8093170401C06A
:103BE0008081FF91EF919F918F912F910F900BBE4C
:103BF0000F900FBE0F901F9018951F920F920FB647
:103C00000F9211240BB60F922F933F934F935F9314
:103C10006F937F938F939F93AF93BF93EF93FF9394
:103C20008EEF93E0C2DEFF91EF91BF91AF919F9134
:103C30008F917F916F915F914F913F912F910F9055
:103C40000BBE0F900FBE0F901F901895EEEFF3E094
:103C50001382128288EE93E0A0E0B0E08483958323
:103C6000A683B78388E293E09183808385EC90E01C
:103C70009587848784EC90E09787868780EC90E036
:103C8000918B808B81EC90E0938B828B82EC90E027
:103C9000958B848B86EC90E0978B868B118E128EA1
:103CA000138E148E089568C1FFC1CF92DF92EF92F8
:103CB000FF920F931F93CF93DF936C017A018B01D7
:103CC000C0E0D0E0CE15DF0581F0D8016D918D0107
:103CD000D601ED91FC910190F081E02DC60119957E
:103CE000892B11F02196EECF7E01C701DF91CF9194
:103CF0001F910F91FF90EF90DF90CF9008951F924A
:103D00000F920FB60F9211242F933F938F939F938F
:103D1000AF93BF9380919C0490919D04A0919E04C9
:103D2000B0919F0430919B0423E0230F2D3720F4A2
:103D30000196A11DB11D05C026E8230F0296A11D05
:103D4000B11D20939B0480939C0490939D04A093A9
:103D50009E04B0939F048091A0049091A104A0912F
:103D6000A204B091A3040196A11DB11D8093A004EB
:103D70009093A104A093A204B093A304BF91AF9128
:103D80009F918F913F912F910F900FBE0F901F9099
:103D900018952FB7F89460919C0470919D048091C0
:103DA0009E0490919F042FBF0895789484B58260FB
:103DB00084BD84B5816084BD85B5826085BD85B5CF
:103DC000816085BDEEE6F0E08081816080831092A5
:103DD000C1000895DB018F939F936BD0BF91AF918A
:103DE000A29F800D911DA39F900DB29F900D112455
:103DF000089597FB072E16F4009406D077FD08D09F
:103E00009FD007FC05D03EF4909581959F4F089573
:103E1000709561957F4F0895A1E21A2EAA1BBB1BD6
:103E2000FD010DC0AA1FBB1FEE1FFF1FA217B30786
:103E3000E407F50720F0A21BB30BE40BF50B661F9C
:103E4000771F881F991F1A9469F760957095809560
:103E500090959B01AC01BD01CF010895052E97FB04
:103E600016F400940FD057FD05D0D6DF07FC02D022
:103E700046F408C050954095309521953F4F4F4FDF
:103E80005F4F089590958095709561957F4F8F4F06
:103E90009F4F0895A29FB001B39FC001A39F700DD3
:103EA000811D1124911DB29F700D811D1124911D42
:103EB0000895F0DFA59F900DB49F900DA49F800DF5
:103EC000911D11240895B7FFF4CFF3DF821B930BEC
:103ED00008950F93083090F0982F872F762F652F35
:103EE000542F432F322F22270850F4CF220F331F95
:103EF000441F551F661F771F881F991F0A95B2F729
:103F00000F91089597FB10F8169400080F9308304E
:103F100098F00850232F342F452F562F672F782FD6
:103F2000892F902DF4CF0594979587957795679570
:103F300057954795379527950A95AAF70F910895B4
:103F4000AA1BBB1B51E107C0AA1FBB1FA617B707BF
:103F500010F0A61BB70B881F991F5A95A9F78095DB
:103F60009095BC01CD010895EE0FFF1F881F8BBFF8
:103F70000790F691E02D19940F931F93CF93DF9341
:103F80008230910510F482E090E0E091A604F09177
:103F9000A70420E030E0A0E0B0E0309719F14081C4
:103FA00051810281138148175907C8F0841795077A
:103FB00069F4109731F012960C93129713961C9394
:103FC00027C00093A6041093A70422C02115310531
:103FD00019F04217530718F49A01BD01EF01DF01F0
:103FE000F801DBCF21153105F9F0281B390B2430FE
:103FF000310580F48A819B816115710521F0FB01F7
:104000009383828304C09093A7048093A604FE0147
:10401000329644C0FE01E20FF31F81939193225028
:104020003109398328833AC02091A4043091A50432
:10403000232B41F420910202309103023093A50416
:104040002093A40420910002309101022115310532
:1040500041F42DB73EB74091040250910502241B54
:10406000350BE091A404F091A504E217F307A0F446
:104070002E1B3F0B2817390778F0AC014E5F5F4FBE
:104080002417350748F04E0F5F1F5093A504409347
:10409000A4048193919302C0E0E0F0E0CF01DF91AE
:1040A000CF911F910F910895CF93DF93009709F45B
:1040B00081C0FC01329713821282A091A604B091B4
:1040C000A704109781F420813181820F931F2091E2
:1040D000A4043091A5042817390751F5F093A504DD
:1040E000E093A40467C0ED0120E030E0CE17DF07C5
:1040F00040F44A815B819E0141155105F1F0EA01CE
:10410000F5CFD383C28340815181840F951FC81797
:10411000D90759F488819981840F951F029691835C
:1041200080838A819B81938382832115310529F4C1
:10413000F093A704E093A6043DC0E901FB83EA8362
:1041400049915991C40FD51FEC17FD0761F4808187
:104150009181840F951F0296E9019983888382815A
:1041600093819B838A83E0E0F0E012968D919C918D
:104170001397009719F0FD01DC01F7CF8D919C9109
:1041800011979D012E5F3F4F820F931F2091A40432
:104190003091A5042817390769F4309729F4109253
:1041A000A7041092A60402C013821282B093A50441
:1041B000A093A404DF91CF9108956F927F928F9284
:1041C0009F92AF92BF92CF92DF92EF92FF920F93A6
:1041D0001F93CF93DF93009781F4CB01DF91CF91B1
:1041E0001F910F91FF90EF90DF90CF90BF90AF9015
:1041F0009F908F907F906F90BFCEFC01E60FF71FCE
:104200009C0122503109E217F30708F4A5C0EC0124
:10421000D9010D911C91119706171707A8F00530C9
:10422000110508F497C0C80104978617970708F48A
:1042300091C002501109061B170B019311936D9346
:104240007C93CF0131DF86C05B01A01AB10A4C011B
:10425000800E911EA091A604B091A704612C712C30
:10426000E12CF12C109709F446C08D919C91119787
:10427000A815B905B1F56C0142E0C40ED11CCA14F1
:10428000DB0478F14C018A189B08640142E0C40EFB
:10429000D11C1296BC9012971396AC91B5E0CB1638
:1042A000D10440F0B282A38391828082D9016D93C0
:1042B0007C9309C00E5F1F4F800F911FF9019183FE
:1042C0008083EB2DFA2FE114F10431F0D70113961E
:1042D000FC93EE9312973EC0F093A704E093A604DC
:1042E00039C06816790608F43C017D0112960D90DC
:1042F000BC91A02DB7CF8091A4049091A5048816FD
:104300009906E1F466167706C8F480910002909150
:104310000102009741F48DB79EB74091040250917D
:104320000502841B950BE817F907B0F4F093A50478
:10433000E093A404F901718360830CC0CB011CDEFF
:104340007C01009749F0A801BE0117D0CE01ACDE78
:10435000C70104C0CE0102C080E090E0DF91CF91A0
:104360001F910F91FF90EF90DF90CF90BF90AF9093
:104370009F908F907F906F900895FB01DC0102C0A9
:1043800001900D9241505040D8F70895F894FFCF16
:104390000000A80420004D65737361676520667294
:1043A0006F6D206465766963652064726F707065F7
:1043B000643A206D657373616765206C617267652F
:1043C00072207468616E206275666665722E0046A2
:1043D0006C6173682072656164206E6F7420696D12
:1043E000706C00427566666572206F766572666CE9
:1043F0006F7720707562004C656674576865656CF0
:104400005469636B7300536F6E61724469737461B6
:104410006E636573005269676874576865656C54AC
:1044200069636B73004C656674576865656C5665A7
:104430006C6F636974790052696768745768656561
:104440006C56656C6F636974790000000000A1050B
:10445000C5050B060E0600000000B508800B11060E
:104460001406000000008408710917061A060000EF
:104470000000AC07C6091D062006000000007207F8
:10448000FB060407760700000000230637064406F3
:104490004706000000004A06B006D206D506000016
:1044A0000000A00D510FF60600000000D806EC0633
:1044B000F006F30600000000F71C551EC61C431D45
:0644C000981CB21CA41CB4
:00000001FF
