S012000048656C6C6F576F726C642E7372656316
S1130000F8C00000F8C2000025C1000023C10000B0
S113001021C100001FC100001DC100001BC1000060
S113002019C1000017C1000015C1000013C1000070
S113003011C100000FC100000DC10000F3C3000096
S113004009C1000007C1000005C1000003C1000090
S113005001C10000FFC00000FDC000000C94BA12F2
S1130060F9C000000C9476110C94AC11F3C000009C
S1130070F1C00000EFC00000EDC00000EBC00000C4
S1130080E9C00000E7C00000E5C00000E3C00000D4
S1130090E1C00000DFC00000DDC00000DBC00000E4
S11300A0D9C00000D7C00000D5C00000D3C00000F4
S11300B0D1C00000CFC00000CDC00000CBC0000004
S11300C0C9C00000C7C00000C5C00000C3C0000014
S11300D0C1C00000BFC000000C9402120C9438127E
S11300E0B9C0000064613539303966626533373828
S11300F06165616638356535343765383330636337
S113010031626237007374645F6D7367732F496E75
S11301107433320039663065393862646136353992
S11301203831393836646466353361666137613431
S11301303065343900726F7373657269616C5F6D19
S11301407367732F52657175657374506172616D55
S113015000313161626437333163323539333332DC
S1130160363163643631383362643132643632395D
S11301703500726F7373657269616C5F6D73677359
S11301802F4C6F67003061643531663838666334EC
S113019034383932663863313036383430373736AC
S11301A0343630303500726F7373657269616C5F19
S11301B06D7367732F546F706963496E666F006364
S11301C0643731363663373463353532633331312E
S11301D0666263633266653561376263323839005B
S11301E07374645F6D7367732F54696D6500D51103
S11301F0611211241FBECFEFD1E2DEBFCDBF00E0FC
S11302000CBF12E0A0E0B2E0EAE2FBE200E00BBFC8
S113021002C007900D92AA3DB107D9F724E0AAEDD8
S1130220B2E001C01D92A237B207E1F710E0C9EFB6
S1130230D0E000E006C021970109802FFE010E9452
S11302407213C73FD10780E00807A9F70E94EF0E99
S11302500C949315D5CEF894DC01ED91FC91B9E1A1
S11302606B9FB00111247183608378940895FC011D
S113027063830895FC018381A481B5818823C1F03F
S11302808130B1F44C9181E090E09C01078002C080
S1130290220F331F0A94E2F7242B2C93A481B581F7
S11302A02C91068002C0880F991F0A94E2F715C0AA
S11302B04C9181E090E09C01068002C0220F331F24
S11302C00A94E2F7242B2C93A481B5812C91078006
S11302D002C0880F991F0A94E2F7809582238C93B9
S11302E008952F923F924F925F926F927F928F92D6
S11302F0AF92CF92DF92EF920F931F93CF93DF933E
S11303001F921F92CDB7DEB7DA82C9824F88588C0C
S1130310698C7A8C2B8C3C8CDB011C91A1E0B0E0C5
S1130320FD0102C0EE0FFF1F4A95E2F7AF01412B1A
S1130330FB014083F9016081AD0101C0440F0A95BE
S1130340EAF7642BAD0101C0440FEA94EAF7462BA7
S11303504083F6013081AD010A2C01C0440F0A9498
S1130360EAF7242F2095AD01082C01C0440F0A940C
S1130370EAF7242B23232083FC011382D582C48231
S1130380A68287822FE33FE1ED89FE8931832083B2
S1130390F20120810D8C02C0AA0FBB1F0A94E2F760
S11303A0A22BA083208122602083D3012C91206181
S11303B02C932C9121602C93FC013182208280EDBE
S11303C097E0D10111969C938E930F900F90DF913B
S11303D0CF911F910F91EF90DF90CF90AF908F90BE
S11303E07F906F905F904F903F902F9008958F92E1
S11303F0AF92CF92DF92EF920F931F93CF93DF933D
S1130400CDB7DEB7DC01F901808141E050E0FA01AB
S113041002C0EE0FFF1F0A95E2F78F01FA0101C037
S1130420EE0FEA94EAF7E02BE0958E23F90180833E
S11304308D859E8519969C938E9318971B96DC92B6
S1130440CE921A971C96AC921C971D968C92F6012C
S11304502081CA0101C0880FAA94EAF7282BCA0197
S113046001C0880F8A94EAF7822B8083E9E6F0E0E2
S11304708081826080838DB301C0440F6A95EAF75E
S1130480482B4DBBDF91CF911F910F91EF90DF90DF
S1130490CF90AF908F9008958F92AF92CF92DF92CA
S11304A0EF920F93CF93DF93EC01662359F1613000
S11304B009F062C083E08F931F928CE98F931F929F
S11304C081E98F931F9280E98F931F9286E98F931E
S11304D086E0882E94E0A92E28E2C22ED12C37E0A3
S11304E0E32E05E027E230E045E06DE270E0CE0166
S11304F0F8DE8DB79EB709960FB6F8949EBF0FBE6F
S11305008DBF3AC085E08F931F928AE98F931F9223
S113051081E98F931F9280E98F931F9286E98F93CD
S113052047E0842E55E0A52E68E2C62ED12C77E054
S1130530E72E05E027E230E044E06DE270E0CE0112
S1130540D0DE8AED92E09F938F9388248394A12C2C
S1130550EBE2CE2ED12CEE24E39400E02AE230E04C
S113056041E060E0CE0143DF8DB79EB70B960FB636
S1130570F8949EBF0FBE8DBFDF91CF910F91EF9086
S1130580DF90CF90AF908F900895F894DC01189687
S1130590ED91FC91199760817181828193817894A6
S11305A00895FA01DC012C9130E0062E02C0359545
S11305B027950A94E2F720FD08C080819181A281E9
S11305C0B3810197A109B10911C0DC018C9190E0BC
S11305D002C0959587956A95E2F780FF0BC08081EC
S11305E09181A281B3810196A11DB11D8083918364
S11305F0A283B38308951F920F920FB60F92112412
S11306000BB60F922F933F934F935F936F937F9308
S11306108F939F93AF93BF93EF93FF934AED52E071
S113062061E089E290E0BDDFFF91EF91BF91AF916E
S11306309F918F917F916F915F914F913F912F91F6
S11306400F900BBE0F900FBE0F901F901895DC01FA
S1130650FB0112968C911297808313968C911397B9
S1130660818314968C911497828315968C91159797
S1130670838316968C911697848317968C9117977B
S1130680858318968C911897868319968C91878305
S113069088E090E00895FC01DB014C9150E060E0BB
S11306A070E0428353836483758311968C91119710
S11306B0582B428353836483758312968C911297CB
S11306C0682B428353836483758313968C911397A9
S11306D0782B428353836483758314964C911497C7
S11306E050E060E070E04683578360877187159619
S11306F08C911597582B468357836087718716967C
S11307008C911697682B4683578360877187179659
S11307108C91782B468357836087718788E090E0BB
S1130720089580EE91E008958FEB91E0089586EAB4
S113073091E0089585E891E0089582E791E00895B5
S113074081E591E0089585E391E0089584E191E0E5
S11307500895DC01FB0112964C91129713962C918B
S1130760139714969C91149715968C91408321832A
S11307709283838384E090E00895FB01408151815A
S113078062817381FC01428353836483758384E0B3
S113079090E0089585E091E0089584EE90E0089556
S11307A08E579B4FFC018081089529EA32E0FC01B9
S11307B031832083838194810C948F12CF93DF93B0
S11307C0EC01F3DFCE01DF91CF910C948F12CF9324
S11307D0DF931F921F92CDB7DEB79A8389832FB719
S11307E0F89449815A81FB0180819181842B952B56
S11307F0918380832FBF0F900F90DF91CF91089545
S113080085E08093B200E1EBF0E08081887F808313
S1130810808184608083E0E7F0E080818160808370
S1130820789408951F920F920FB60F9211240BB66D
S11308300F92CF92DF92EF92FF920F931F932F9319
S11308403F934F935F936F937F938F939F93AF9354
S1130850BF93CF93DF93EF93FF9385E08093B20030
S1130860CAEED2E00EED12E0E12CF12C8DE0D82E90
S1130870CC24C39488818F3F09F443C0F80180815C
S113088091810196918380832B813C818217930708
S113089089F5118210828981882361F18E818130EA
S11308A0E9F0D0F0823091F0833021F5DE9CF00144
S11308B0DF9CF00D1124E651FD4F818592856B85F7
S11308C07C8585DFEF81F885199514C0F894EF8154
S11308D0F885199578940EC0CA820CC0DE9CF0018C
S11308E0DF9CF00D1124E651FD4F818592856B85C7
S11308F07C856DDFFFEFEF1AFF0A2D960E5F1F4F09
S1130900B9CFFF91EF91DF91CF91BF91AF919F91BB
S11309108F917F916F915F914F913F912F911F9193
S11309200F91FF90EF90DF90CF900F900BBE0F9040
S11309300FBE0F901F901895EF92FF920F931F9385
S1130940CF93DF931F921F92CDB7DEB7DC011A83DA
S113095009838091E80281110DC0EAEEF2E08FEF85
S1130960808311823D9693E0EB32F907C9F781E069
S11309708093E80280E09DE0989FF0011124E65105
S1130980FD4F50815F3F11F08F5FF6CF808312825D
S11309903087278329813A8132872187F486E38649
S11309A04683B483A38365830F900F90DF91CF9127
S11309B01F910F91FF90EF900895CF93C82F8091CE
S11309C0E902811104C01CDF81E08093E9028DE01B
S11309D0C89FF0011124E651FD4F81E08183CF913E
S11309E00895CF93DF93DC0115968D919C91169712
S11309F0FB0115962D913C91169725393105ECF4A0
S1130A00449113966D917C911497EB01C20FD31FFF
S1130A10488315962D913C91169731961396CD9156
S1130A20DC911497C20FD31F48812F5F3F4F169656
S1130A303C932E9315974111DCCF15962D913C9143
S1130A4016972539310524F022E017962C93179731
S1130A5013962D913C911497820F931FDF91CF91A0
S1130A6008954111BECFCB010895BBCFCF93DF933F
S1130A70EC011A8289EA92E0998388831E821D829E
S1130A8086E990E00E948E129C838B83FC01108285
S1130A90EB56FF4F1082DF91CF910895CF92DF92F2
S1130AA0EF92FF9220E030E06A017B01022E04C045
S1130AB0F694E794D794C7940A94D2F7FC01C192B0
S1130AC0CF01285F3F4F2032310571F7FF90EF903F
S1130AD0DF90CF9008954F925F926F927F92AF9282
S1130AE0BF92CF92DF92EF92FF920F931F93CF9317
S1130AF0DF93EC018B018A81FB0180838B818183ED
S1130B008C8182838D818383DB0140E050E0BA01D4
S1130B10E4E0F0E01496CA80DB80EC80FD80CF0135
S1130B2004964C155D056E057F05C8F42A853B8542
S1130B30E20FF31F3497D080F18032812381DC925D
S1130B401196FC92119712963C93129713962C933C
S1130B501397FC014F5F5F4F6F4F7F4FDBCF5F01F8
S1130B60A00EB11E2C85F50120832D8521832E85B1
S1130B7022832F852383D50140E050E0BA01CC8441
S1130B80DD84EE84FF849C012C5F3F4F4C155D0592
S1130B906E057F05F8F4CD018A199B09EC88FD8860
S1130BA08E0D9F1DFC01D080E180F280838114961C
S1130BB0DC9214971596EC9215971696FC9216975C
S1130BC017968C931797C9014F5F5F4F6F4F7F4FF5
S1130BD01496D5CFF801E80FF91F8E8980838F8989
S1130BE08183888D8283898D83837901A12CB12CA3
S1130BF0412C512C32018E899F89A88DB98D4816BC
S1130C0059066A067B0678F5EC8DFD8DEA0DFB1D11
S1130C10A081B181FD0101900020E9F731976F01B6
S1130C20CA1ADB0AA60160E070E0C8018E0D9F1DA0
S1130C3035DFF4E0EF0EF11CEC8DFD8DEA0DFB1DAC
S1130C4060817181A601C8018E0D9F1D0E948A15C5
S1130C50EC0CFD1C8FEF481A580A680A780AE2E087
S1130C60AE0EB11CC8CFC701DF91CF911F910F9178
S1130C70FF90EF90DF90CF90BF90AF907F906F90F8
S1130C805F904F900895EF92FF920F931F93CF932D
S1130C90DF938C017B01DC0112962C911297FB01EE
S1130CA02193CF011396ED91FC911497EF010990D4
S1130CB00020E9F72197CE1BDF0BAE0160E070E066
S1130CC0EDDED80113966D917C911497AE01C701A6
S1130CD005960E948A15CE010596DF91CF911F914A
S1130CE00F91FF90EF900895CF92DF92EF92FF92D1
S1130CF00F931F93CF93DF937C018B01DC0112963A
S1130D008C911297FB01808313968C9113978183A6
S1130D101496ED91FC911597EF0109900020E9F7E5
S1130D202197CE1BDF0BAE0160E070E0C801029694
S1130D30B5DED70114966D917C911597AE01C8016B
S1130D4006960E948A15CE010696F701A681B78100
S1130D50FD0101900020E9F731976F01CA1ADB0AFF
S1130D60A60160E070E0800F911F98DE2A96D701FB
S1130D7016966D917C911797A601C8018C0F9D1F43
S1130D800E948A15CC0DDD1DD7011896ED91FC91BA
S1130D901997DF010D900020E9F711976D01CE1A24
S1130DA0DF0AA60160E070E0C8018C0F9D1F76DEAB
S1130DB02496F70160857185A601C8018C0F9D1FDB
S1130DC00E948A15C6018C0F9D1FD7011A966C913B
S1130DD01A971B964C911B971C963C911C971D9639
S1130DE02C91F801E80FF91F608341833283238338
S1130DF00496DF91CF911F910F91FF90EF90DF90B8
S1130E00CF900895CF92DF92EF92FF92FC0110826F
S1130E10118212821382DB0120E030E04D9150E018
S1130E20022E02C0440F551F0A94E2F7052E000C4F
S1130E30660B770BC080D180E280F3804C295D295A
S1130E406E297F294083518362837383285F3F4FD8
S1130E502032310519F7FF90EF90DF90CF9008957D
S1130E604F925F926F927F928F929F92AF92BF92B6
S1130E70EF92FF920F931F93CF93DF9300D01F92B3
S1130E80CDB7DEB77C018B01FB018191BF01F70176
S1130E908283CE010196B6DF89819A81AB81BC81C0
S1130EA04C015D01F5E08F0E911CA11CB11CA80141
S1130EB04C5F5F4FFA0125E030E02901612C712C71
S1130EC0481459046A047B0428F4618161932F5FF8
S1130ED03F4FF3CFF801E80FF91F1482F701548351
S1130EE0438305960F900F900F900F90DF91CF9151
S1130EF01F910F91FF90EF90BF90AF909F908F90B4
S1130F007F906F905F904F9008952F923F924F92F1
S1130F105F926F927F928F929F92AF92BF92CF9285
S1130F20DF92EF92FF920F931F93CF93DF93CDB78E
S1130F30DEB760970FB6F894DEBF0FBECDBF8C014D
S1130F406B01DB018D909D90AD90BC90FC01828182
S1130F509381A481B58188159905AA05BB0570F410
S1130F60B401660F771F660F771F828593850E94F1
S1130F70AA14D8011B969C938E931A97F801828227
S1130F809382A482B5829601812C912C540144E071
S1130F9050E0B8016A5F7F4F2C5F3F4FF8018281B8
S1130FA09381A481B581FA0134961F0188169906AC
S1130FB0AA06BB0650F5D9011196FC90119712961A
S1130FC08C9190E0A0E0B0E0DC01992788279F296C
S1130FD0F901F0808F29F380BF29F8018683978374
S1130FE0A087B187DA01A101149782859385A80FA0
S1130FF0B91F84E0FB0101900D928A95E1F7FFEFA0
S11310008F1A9F0AAF0ABF0AC7CF4601840E951EE6
S1131010D4018C9111969C91119712964C90129731
S1131020512C612C712C320155244424592A482A0C
S113103013968C91782A5F01F80184859585A6859D
S1131040B78584159505A605B70570F4B201660F3A
S1131050771F660F771F848995890E94AA14D80187
S113106055969C938E935497F801448655866686CC
S11310707786C401412C512C32019801205F3F4FE7
S1131080D8011C964D915D916D917C911F97F5014E
S11310903496441655066606770698F5DC011596CF
S11310A0FC90159716964C91169750E060E070E00E
S11310B0BA01552744275F291496FC9014974F29A9
S11310C01796FC907F29D80150964D935D936D93AC
S11310D07C9353975F01AC014819590954960D90BC
S11310E0BC91A02DA40FB51F44E0F90101900D920D
S11310F04A95E1F7BFEF4B1A5B0A6B0A7B0A049629
S1131100BFCFD601AA0DBB1D8C9111969C9111974E
S113111012968C901297912CA12CB12C54019924E5
S11311208824992A882A13968C91B82A7F01F80179
S113113086899789A08DB18D88159905AA05BB0567
S113114060F4B401660F771F848D958D0E94AA14F4
S1131150D8015D969C938E935C97F801868A978A52
S1131160A08EB18E212C312C812C912C540198010C
S1131170265E3F4F3A872987F80186899789A08D93
S1131180B18D88169906AA06BB0608F05EC0B601A2
S11311906E0D7F1DCE01019635DE97012C5F3F4F0A
S11311A0388B2F8749815A816B817C81C901330F28
S11311B0AA0BBB0B2C013D01440E551E661E771E67
S11311C04B865C866D867E8623E0E20EF11CF6017A
S11311D0EE0DFF1D2F853889C901A0E0B0E04B84D6
S11311E05C846D847E8484159505A605B70528F472
S11311F0A181A1932F5F3F4FEFCF6F847888460D75
S1131200571DF601E40FF51F31971082C3010197B2
S11312108C0D9D1DD8015B969C938E935A977A01F1
S11312205C96ED91FC915D97E20DF31DA985BA855D
S11312308D919C9191838083BFEF8B1A9B0AAB0A9B
S1131240BB0AE2E02E0E311C97CFC70160960FB6A1
S1131250F894DEBF0FBECDBFDF91CF911F910F91E8
S1131260FF90EF90DF90CF90BF90AF909F908F90C2
S11312707F906F905F904F903F902F9008954F9282
S11312805F926F927F928F929F92AF92BF92CF9212
S1131290DF92EF92FF920F931F93CF93DF93CDB71B
S11312A0DEB72C970FB6F894DEBF0FBECDBF7C011E
S11312B08B01DB018C9190E0F7019383828311967B
S11312C02C91922B938382836E5F7F4FCE0109967C
S11312D099DD89849A84AB84BC8424013501F6E0C9
S11312E04F0E511C611C711C98012B5F3F4FF9017B
S11312F086E090E0AC0160E070E0441555056605B9
S1131300770520F4418141930196F4CFF801E80D6B
S1131310F91D1582D70115963C932E931497B401A9
S11313206A5F7F4F600F711FCE0105966BDDBAE0D7
S11313308B0E911C4D805E806F807884A401092CF3
S1131340000C660B770B440D551D661D771DD801E7
S1131350A80DB91DCD01801B910B5C01C12CD12CB2
S1131360A416B506C606D70628F48D91FD0132975A
S11313708083F0CF5401A40CB51CB8016A0D7B1D09
S1131380FB0131971082C4010197800F911FF7016F
S113139097838683CE01019635DD95012C5F3F4FFF
S11313A089819A81AB81BC812901032E000C6608D6
S11313B07708480E591E6A1E7B1EF5013396E00F0E
S11313C0F11FA9014A01A12CB12C84149504A6048F
S11313D0B70428F4618161934F5F5F4FF3CF820FAD
S11313E0931FF801E80FF91FDF0111971C92215098
S11313F03109020F131FD70119961C930E931897E6
S11314002181428150E060E070E0BA015527442711
S1131410522B2081422B2381722BF7014287538761
S11314206487758704962C960FB6F894DEBF0FBEBA
S1131430CDBFDF91CF911F910F91FF90EF90DF907F
S1131440CF90BF90AF909F908F907F906F905F9060
S11314504F9008950F931F93CF93DF93CDB7DEB7CB
S11314602A970FB6F894DEBF0FBECDBF8C0189E773
S113147092E09A8389831B821C821D821E821F82B2
S1131480188619861A86D801ED91FC910190F08195
S1131490E02DAE014F5F5F4F6AE070E0C80119951F
S11314A00E940413F80160877187828793872A96C4
S11314B00FB6F894DEBF0FBECDBFDF91CF911F9161
S11314C00F9108958F929F92AF92BF92CF92DF9225
S11314D0EF92FF920F931F93CF93DF93CDB7DEB7B5
S11314E02A970FB6F894DEBF0FBECDBF8C015B0107
S11314F089E792E09A8389831B821C821D821E8263
S11315001F82188619861A860E940413F801C08463
S1131510D184E284F3849B01AC012C193D094E096A
S11315205F0969017A01B501CE010196B4D888EE4C
S1131530882E83E0982EA12CB12CC701B601A501F9
S113154094010E943213CB80DC80ED80FE80C20EB9
S1131550D31EE41EF51ECB82DC82ED82FE829B014B
S1131560AC0160E472E48FE090E00E941013CF803D
S1131570D884E984FA84DC01CB018C0D9D1DAE1D59
S1131580BF1D8F839887A987BA870E940413CB80D5
S1131590DC80ED80FE8031E0C31AD108E108F10857
S11315A0A50194010E943213C21AD30AE40AF50A6F
S11315B0F801C486D586E686F786CF80D884E98488
S11315C0FA84F6E3DF1AF5E6EF0AF4ECFF0A9B016E
S11315D0AC0160E472E48FE090E00E941013C61A3C
S11315E0D70AE80AF90AF801C08AD18AE28AF38A9A
S11315F0B801605F7F4FC8010C961CD50E9404138C
S1131600F801E957FB4F60837183828393832A96A1
S11316100FB6F894DEBF0FBECDBFDF91CF911F91FF
S11316200F91FF90EF90DF90CF90BF90AF909F907D
S11316308F900895CF93DF9300D01F921F92CDB760
S1131640DEB721E932E03A8329836B835D834C83DF
S1131650DC01ED91FC910190F081E02DAE014F5F32
S11316605F4F67E070E019950F900F900F900F9007
S11316700F90DF91CF910895AF92BF92CF92DF92F6
S1131680EF92FF920F931F93CF93DF93643671050C
S11316903CF0FC01EE57FB4F2081222309F462C089
S11316A0DA016B01EC01BC01655E7D4FED91FC91AB
S11316B00190F081E02DCA0119958C017E012CEE78
S11316C0E21A2DEFF20A2FEFD7012C93FE01EB5E05
S11316D0FD4F2EEF2083319680833196908331968F
S11316E0980F909590833196C0821696DC9245E0CF
S11316F050E020E030E0C80107964817590730F45D
S11317006191260F311D4F5F5F4FF7CF085F1F4F69
S11317108C0F9D1FFC01EC5EFD4F20952083013052
S1131720B2E01B07A8F468015701C5018E199F098F
S113173080179107CCF48A819B81F50161915F0147
S1131740DC01ED91FC910190F081E02D1995EDCF34
S113175046E052E063E0CE016DDFCC24CA94DD2480
S1131760DA9402C0C12CD12CC601DF91CF911F9114
S11317700F91FF90EF90DF90CF90BF90AF900895BE
S11317804F925F926F927F92AF92BF92CF92DF920D
S1131790EF92FF920F931F93CF93DF93CDB7DEB7F2
S11317A066970FB6F894DEBF0FBECDBF8C0185E8F7
S11317B092E09A8389831C821B828EE392E09E834B
S11317C08D8398878F839A8789871B861C861D86BD
S11317D01E8668018CEEC81A8BEFD80A7801AAEB32
S11317E0EA1AABEFFA0A412C92E0592E612C712CC3
S11317F0F60180819181892B09F45BC0CE010F969B
S113180035D9D601ED91FC91858196819C838B839A
S1131810608171814281CE010F9623D99E838D838D
S1131820D601ED91FC9183819481DC01ED91FC91D1
S11318300480F581E02D1995BC01CE010F96D1D815
S113184098878F83D601ED91FC9183819481DC018B
S1131850ED91FC910680F781E02D1995BC01CE0134
S11318600F96BFD89A8789874B865C866D867E865D
S1131870D601ED91FC9161857285D801ED91FC91C1
S11318800190F081E02DAE014F5F5F4FC8011995C3
S11318908989813019F44FE352E004C0823029F47D
S11318A043E552E063E0C801C5DECE010F960E9415
S11318B0D503B2E0CB0ED11CCE14DF0409F098CFCF
S11318C06801E8E8CE1AEBEFDE0A412C82E0582EDC
S11318D0612C712CD7018D919C91892B09F45DC0E9
S11318E0CE010F96C3D8D701ED91FC9182819381EB
S11318F09C838B83648175814681CE010F96B1D818
S11319009E838D83F70180819181DC01ED91FC91AF
S11319100480F581E02D1995BC01CE010F9661D8A4
S113192098878F83F70180819181DC01ED91FC918F
S11319300680F781E02D1995BC01CE010F9651D890
S11319409A8789874B865C866D867E86D801ED9161
S1131950FC91A080B180F70180819181DC01ED913F
S1131960FC910280F381E02D1995AE014F5F5F4F2A
S1131970BC01C801F50119958989813019F44FE337
S113198052E004C0823029F443E552E063E0C80128
S113199051DECE010F960E94D503F2E0EF0EF11C4A
S11319A0CE14DF0409F096CFF801EE57FB4F81E027
S11319B0808366960FB6F894DEBF0FBECDBFDF916D
S11319C0CF911F910F91FF90EF90DF90CF90BF9038
S11319D0AF907F906F905F904F9008952F923F92B9
S11319E04F925F926F927F928F929F92AF92BF922B
S11319F0CF92DF92EF92FF920F931F93CF93DF93D7
S1131A00CDB7DEB760970FB6F894DEBF0FBECDBF7B
S1131A10988B8F87F9D54B015C012F85388929571D
S1131A203B4F3E832D83F90180819181A281B38153
S1131A30A5019401281B390B4A0B5B0BDA01C90180
S1131A40893F9A42A105B10528F0EF85F889EE5740
S1131A50FB4F10820F85188908581B4FD8018D91B0
S1131A609C91892B81F0EF85F889E557FB4F8081A4
S1131A709181A281B38188159905AA05BB0518F443
S1131A80F801118210826F847888F0E86F1AFBEFF6
S1131A907F0A2F85388924583B4F3A832983CF8482
S1131AA0D88834E1C30ED11C4F8558894E575B4FFB
S1131AB058874F838F85988980579B4F9A8789874A
S1131AC0AF85B889A157BB4FBC87AB87EF84F88833
S1131AD0B6E8EB1ABBEFFB0AEF85F889E258FB4F37
S1131AE0FC83EB832F85388925573B4F3E872D8711
S1131AF01401250134E1230E311C411C511CAF8516
S1131B00B88912968D919C911397DC01ED91FC910B
S1131B100284F385E02D19959C0197FD1FC1F30103
S1131B2080819181820F931F91838083D8014D918D
S1131B305C9147305105D1F4EB81FC818081918126
S1131B40AC014F5F5F4F51834083EF85F889E80F05
S1131B50F91F248BD7018D919C91119701978D9337
S1131B609C93892B61F688E090E02FC041155105C4
S1131B7021F52F3F310561F481E090E0D8018D9388
S1131B809C93ED85FE852082318242825382B7CFB9
S1131B903BD5DC01CB0188199909AA09BB09069731
S1131BA0A105B10508F4ABCF2F8538892E573B4FDB
S1131BB0D9011C928EEF9FEFF9C041305105A9F471
S1131BC02E3F310531F482E090E0F8019183808367
S1131BD096CFD8011D921C92EF81F88580818111E6
S1131BE08ECF8F85988936DC8ACF4230510581F4B7
S1131BF0D7012D933C93EB81FC811182108283E009
S1131C0090E0D8018D939C93F3013183208377CFA7
S1131C104330510569F4322F2227D7018D919C91CD
S1131C201197280F391F2D933C9384E090E0CDCF7A
S1131C304430510581F460E071E001D58F3F910596
S1131C4031F485E090E0D8018D939C9358CFF8014E
S1131C501182108254CF4530510569F4A981BA81AB
S1131C602D933C9346E050E0F80151834083D30127
S1131C702D933C9344CF4630510599F4322F2227BB
S1131C80E981FA8180819181280F391F3183208372
S1131C90E7E0F0E0D801ED93FC93D7018D919C919E
S1131CA060CF4830510509F02ACFF8011182108223
S1131CB060E071E0C4D48F3F910509F020CFA98181
S1131CC0BA818D919C910097B9F48F859889C2DB74
S1131CD08F85988955DDEF85F889ED57FB4F808214
S1131CE09182A282B382ED81FE8180829182A2825E
S1131CF0B3828FEF9FEF5AC08A30910529F4B60161
S1131D008F859889DFDBFBCE8630910549F4B601D7
S1131D1089859A85FAD881E0AB85BC858C93EFCE12
S1131D208B30910521F4EF81F8851082E8CEFC0117
S1131D30E154FE4FEE0FFF1F2F853889E20FF31F8A
S1131D4080819181009709F4DACEDC01ED91FC9158
S1131D500190F081E02DB6011995D1CEEF85F88977
S1131D60EE57FB4F80818823F9F00F8518890D57B2
S1131D701B4FF80180819181A281B381A501940157
S1131D80281B390B4A0B5B0BDA01C901853C9940CE
S1131D90A105B10548F08F8598895CDBD8018D9247
S1131DA09D92AD92BC92139780E090E060960FB63E
S1131DB0F894DEBF0FBECDBFDF91CF911F910F917D
S1131DC0FF90EF90DF90CF90BF90AF909F908F9057
S1131DD07F906F905F904F903F902F900895CF9396
S1131DE0DF93CDB7DEB7CD5CD4400FB6F894DEBF39
S1131DF00FBECDBF81EC92E09A8389838BE293E09E
S1131E009C838B8380E091EEA0E0B0E08D839E8381
S1131E10AF83B887CD57DB4F1882C358D4408DE9C0
S1131E2092E0CF56DB4F99838883C159D440CD5675
S1131E30DB4F188219821A821B82C359D440C556BB
S1131E40DB4F19821882CB59D440C356DB4F18821A
S1131E5019821A821B82CD59D440CB55DB4F19828B
S1131E601882C55AD440C955DB4F188219821A8288
S1131E701B82C75AD440C355DB4F19821882CD5AEE
S1131E80D4408E010B5E1B4FFE01E95BFB4FD80172
S1131E901D921D92EA17FB07D9F77E0187E8E81A1D
S1131EA08BEFF80A11921192EE16FF06D9F7DE01B4
S1131EB05596FE01EB5EFD4F1D92EA17FB07E1F715
S1131EC01192E017F107E1F75E01A8E3AA1AABEF5C
S1131ED0BA0A85EB92E0F501918380831282138222
S1131EE0148215826E01B3E4CB1ABBEFDB0A87E6DA
S1131EF092E0F601918380831282B482A3821286D7
S1131F00118626E040E051EE60E070E08BE293E061
S1131F108AD1D7011D921C92C558DB4F19821882B1
S1131F20CB57D440C158DB4F19821882CF57D440C5
S1131F30C358DB4F19821882CD57D44080E090E01B
S1131F40F801219131918F01232BC1F4FC01E65F4B
S1131F50FD4FEE0FFF1F9E012F5F3F4FE20FF31F58
S1131F60D182C08283589F4FD60116969C938E933C
S1131F70159718963C932E93179704C001968931B0
S1131F809105F1F6E12CF12C00E010E020E030E0C6
S1131F9040E061E084E190E00E949C04082F0E94EC
S1131FA0DD0460E0CE0181559B4F0E944C0260E04D
S1131FB0CE0181559B4F0E94370168ECCE018155BB
S1131FC09B4F0E942B01CE0181559B4F0E943A01E9
S1131FD0BDE00B9F8001112404511D4FF801808145
S1131FE0811101C0FFCF108245E050E06FE672E03E
S1131FF088EC93E095D2CE0181559B4F0E94C50297
S1132000F5016283738384839583D60117968D913A
S11320109C91189715966D917C911697DC01ED9122
S1132020FC910190F081E02DA5011995CE01019656
S1132030D5DCD4CFCF92DF92EF92FF920F931F9310
S1132040CF93DF938C01EB01688179818A819B8135
S113205020E03AEC4AE95BE305D3F801C080D18083
S1132060E280F380C20ED31EE41EF51EC082D1822C
S1132070E282F382688379838A839B83DF91CF91A1
S11320801F910F91FF90EF90DF90CF900895FC0186
S1132090918D228D892F90E0805C9F4F821B910946
S11320A08F7399270895FC01918D828D981731F0D3
S11320B0828DE80FF11D858D90E008958FEF9FEFDD
S11320C00895FC01918D828D981761F0828DDF0156
S11320D0A80FB11D5D968C91928D9F5F9F73928F17
S11320E090E008958FEF9FEF0895FC01538D448D88
S11320F0252F30E0842F90E0821B930B541710F0AF
S1132100CF96089501970895FC01848DDF01A80FEF
S1132110B11DA35ABF4F2C91848D90E001968F730B
S11321209927848FA689B7892C93A089B1898C912A
S1132130837080648C93938D848D981306C0028879
S1132140F389E02D80818F7D80830895EF92FF9243
S11321500F931F93CF93DF93EC0181E0888F9B8DC6
S11321608C8D981305C0E889F989808185FD25C087
S1132170F62E0B8D10E00F5F1F4F0F731127E02E0B
S11321808C8DE8120BC00FB607FCFACFE889F989E9
S1132190808185FFF5CFCE01B7DFF2CF8B8DFE01B5
S11321A0E80FF11DE35AFF4FF0829FB7F8940B8FAD
S11321B0EA89FB89808180620AC09FB7F894EE891E
S11321C0FF896083E889F9898081837080648083D2
S11321D09FBF81E090E0DF91CF911F910F91FF901D
S11321E0EF900895CF93DF93EC01888D8823C1F09D
S11321F0EA89FB89808185FD05C0A889B9898C910C
S113220086FD0EC00FB607FCF5CF808185FFF2CFA7
S1132210A889B9898C9185FFEDCFCE0175DFE8CF10
S1132220DF91CF910895CF92DF92EF92FF921F93A7
S1132230CF93DF93EC016A017B01122FE889F989BE
S113224082E080834115514E61057105A9F060E07B
S113225079E08DE390E0A701960104D2DA01C90187
S11322600197A109B109B695A795979587959C0102
S1132270211580E13807A0F0E889F989108260E827
S113228074E88EE190E0A7019601ECD1DA01C9016E
S11322900197A109B109B695A795979587959C01D2
S11322A0EC85FD853083EE85FF852083188EEC89CF
S11322B0FD891083EA89FB89808180618083EA89B2
S11322C0FB89808188608083EA89FB8980818068BA
S11322D08083EA89FB8980818F7D8083DF91CF9120
S11322E01F91FF90EF90DF90CF9008951F920F926F
S11322F00FB60F9211240BB60F922F938F939F93C7
S1132300EF93FF93E0913B03F0913C038081E091D4
S11323104103F091420382FD12C0908180914403F5
S11323208F5F8F7320914503821751F0E09144032E
S1132330F0E0E55DFC4F958F8093440301C08081FC
S1132340FF91EF919F918F912F910F900BBE0F9062
S11323500FBE0F901F9018951F920F920FB60F92F9
S113236011240BB60F922F933F934F935F936F9368
S11323707F938F939F93AF93BF93EF93FF938BE2DE
S113238093E0C2DEFF91EF91BF91AF919F918F9146
S11323907F916F915F914F913F912F910F900BBE61
S11323A00F900FBE0F901F901895EBE2F3E013828D
S11323B0128288EE93E0A0E0B0E084839583A68344
S11323C0B7838BEC92E09183808385EC90E09587D2
S11323D0848784EC90E09787868780EC90E0918BEB
S11323E0808B81EC90E0938B828B82EC90E0958BD8
S11323F0848B86EC90E0978B868B118E128E138ED5
S1132400148E08951F920F920FB60F9211240BB6DB
S11324100F922F938F939F93EF93FF93E091D803A1
S1132420F091D9038081E091DE03F091DF0382FD16
S113243012C090818091E1038F5F8F732091E2033A
S1132440821751F0E091E103F0E0E853FC4F958FDF
S11324508093E10301C08081FF91EF919F918F915F
S11324602F910F900BBE0F900FBE0F901F901895D9
S11324701F920F920FB60F9211240BB60F922F9347
S11324803F934F935F936F937F938F939F93AF93F8
S1132490BF93EF93FF9388EC93E036DEFF91EF91C7
S11324A0BF91AF919F918F917F916F915F914F9168
S11324B03F912F910F900BBE0F900FBE0F901F9066
S11324C01895E8ECF3E01382128288EE93E0A0E022
S11324D0B0E084839583A683B7838BEC92E09183E9
S11324E0808385E391E09587848784E391E09787EF
S11324F0868780E391E0918B808B81E391E0938BDD
S1132500828B82E391E0958B848B86E391E0978BB9
S1132510868B118E128E138E148E0895FAC091C17B
S1132520CF92DF92EF92FF920F931F93CF93DF939B
S11325306C017A018B01C0E0D0E0CE15DF0581F09B
S1132540D8016D918D01D601ED91FC910190F0813E
S1132550E02DC6011995892B11F02196EECF7E014D
S1132560C701DF91CF911F910F91FF90EF90DF9002
S1132570CF9008951F920F920FB60F9211242F93AC
S11325803F938F939F93AF93BF93809166049091F1
S11325906704A0916804B09169043091650423E054
S11325A0230F2D3720F40196A11DB11D05C026E887
S11325B0230F0296A11DB11D209365048093660428
S11325C090936704A0936804B093690480916A04AB
S11325D090916B04A0916C04B0916D040196A11DBF
S11325E0B11D80936A0490936B04A0936C04B09320
S11325F06D04BF91AF919F918F913F912F910F9057
S11326000FBE0F901F9018952FB7F8946091660431
S11326107091670480916804909169042FBF0895B4
S1132620DB018F939F9340D0BF91AF91A29F800D08
S1132630911DA39F900DB29F900D1124089597FBB7
S1132640072E16F4009406D077FD08D037D007FC87
S113265005D03EF4909581959F4F089570956195AE
S11326607F4F0895A1E21A2EAA1BBB1BFD010DC0CA
S1132670AA1FBB1FEE1FFF1FA217B307E407F5072E
S113268020F0A21BB30BE40BF50B661F771F881F0A
S1132690991F1A9469F760957095809590959B01A0
S11326A0AC01BD01CF01089525D0A59F900DB49F25
S11326B0900DA49F800D911D11240895AA1BBB1B8E
S11326C051E107C0AA1FBB1FA617B70710F0A61B2E
S11326D0B70B881F991F5A95A9F780959095BC014F
S11326E0CD010895EE0FFF1F881F8BBF0790F69151
S11326F0E02D1994A29FB001B39FC001A39F700D58
S1132700811D1124911DB29F700D811D1124911DF5
S113271008950F931F93CF93DF938230910510F4A4
S113272082E090E0E0917004F091710420E030E0E8
S1132730A0E0B0E0309719F140815181028113810A
S113274048175907C8F08417950769F4109731F0B2
S113275012960C93129713961C9327C0009370043F
S11327601093710422C02115310519F04217530743
S113277018F49A01BD01EF01DF01F801DBCF211547
S11327803105F9F0281B390B2430310580F48A8196
S11327909B816115710521F0FB019383828304C041
S11327A09093710480937004FE01329644C0FE013C
S11327B0E20FF31F819391932250310939832883C7
S11327C03AC020916E0430916F04232B41F4209180
S11327D002023091030230936F0420936E0420911F
S11327E00002309101022115310541F42DB73EB7A5
S11327F04091040250910502241B350BE0916E04B4
S1132800F0916F04E217F307A0F42E1B3F0B281777
S1132810390778F0AC014E5F5F4F2417350748F055
S11328204E0F5F1F50936F0440936E0481939193F6
S113283002C0E0E0F0E0CF01DF91CF911F910F9152
S11328400895CF93DF93009709F481C0FC01329778
S113285013821282A0917004B0917104109781F4D4
S113286020813181820F931F20916E0430916F0477
S11328702817390751F5F0936F04E0936E0467C08D
S1132880ED0120E030E0CE17DF0740F44A815B81A0
S11328909E0141155105F1F0EA01F5CFD383C283BE
S11328A040815181840F951FC817D90759F4888135
S11328B09981840F951F0296918380838A819B81DD
S11328C0938382832115310529F4F0937104E093F5
S11328D070043DC0E901FB83EA8349915991C40F17
S11328E0D51FEC17FD0761F480819181840F951F3A
S11328F00296E90199838883828193819B838A83E9
S1132900E0E0F0E012968D919C911397009719F0F6
S1132910FD01DC01F7CF8D919C9111979D012E5FF4
S11329203F4F820F931F20916E0430916F0428173C
S1132930390769F4309729F41092710410927004E5
S113294002C013821282B0936F04A0936E04DF91CD
S1132950CF9108956F927F928F929F92AF92BF9280
S1132960CF92DF92EF92FF920F931F93CF93DF9357
S1132970009781F4CB01DF91CF911F910F91FF90CC
S1132980EF90DF90CF90BF90AF909F908F907F900B
S11329906F90BFCEFC01E60FF71F9C012250310956
S11329A0E217F30708F4A5C0EC01D9010D911C91BD
S11329B0119706171707A8F00530110508F497C0FA
S11329C0C80104978617970708F491C002501109AB
S11329D0061B170B019311936D937C93CF0131DF89
S11329E086C05B01A01AB10A4C01800E911EA09111
S11329F07004B0917104612C712CE12CF12C1097AE
S1132A0009F446C08D919C911197A815B905B1F5AB
S1132A106C0142E0C40ED11CCA14DB0478F14C01F1
S1132A208A189B08640142E0C40ED11C1296BC9023
S1132A3012971396AC91B5E0CB16D10440F0B28254
S1132A40A38391828082D9016D937C9309C00E5F28
S1132A501F4F800F911FF90191838083EB2DFA2F73
S1132A60E114F10431F0D7011396FC93EE9312971D
S1132A703EC0F0937104E093700439C0681679067F
S1132A8008F43C017D0112960D90BC91A02DB7CFA6
S1132A9080916E0490916F0488169906E1F466168D
S1132AA07706C8F48091000290910102009741F4E6
S1132AB08DB79EB74091040250910502841B950B7B
S1132AC0E817F907B0F4F0936F04E0936E04F9018A
S1132AD0718360830CC0CB011CDE7C01009749F03C
S1132AE0A801BE0117D0CE01ACDEC70104C0CE01DF
S1132AF002C080E090E0DF91CF911F910F91FF9091
S1132B00EF90DF90CF90BF90AF909F908F907F9089
S1132B106F900895FB01DC0102C001900D924150B9
S10D2B205040D8F70895F894FFCF51
S1132B2A0000720420004D65737361676520667244
S1132B3A6F6D206465766963652064726F70706571
S1132B4A643A206D657373616765206C61726765A9
S1132B5A72207468616E206275666665722E00461C
S1132B6A6C6173682072656164206E6F7420696D8C
S1132B7A706C00427566666572206F766572666C63
S1132B8A6F772070756200636861747465720048B7
S1132B9A616C6C6F000000000027034B03910394DF
S1132BAA030000000074063F0997039A030000001B
S1132BBA00430630079D03A003000000006B05854F
S1132BCA07A303A603000000003105D503DE03357D
S1132BDA0500000000A903BD03CA03CD03000000D9
S1132BEA003C0BEE0CD00300000000A610901275F6
S10D2BFA10F2104710611053100090
S9030000FC
